020000000000000000000000000000000000000000000000000000000000000000000000000000000000000000000000000000000000000000000000000000000000000000000000000000000000000000000000000000000000
040000000000000000190306000000000000000000000000000000000000000000000000000000000000000000000000000000000000000000000000000000000000000000000000000000000000000000000000000000000000
1028226757110044676000000000128246762519282595100000019005000000000000BLIL.4006088630BMFW-0000000000MATSHIDISO MOTH00000000000000000000000000000000000000000000000000000000000000000
1028226757110044676000000000228146762029624394100000017866000000000000BLIL.4001976277BMFW-0000000000OTLAATHUSA SEFO00000000000000000000000000000000000000000000000000000000000000000
1028226757110044676000000000328286762150239715100000030500000000000000BLIL.4003131500ULP1-0000000000MPHO SEKWATI   00000000000000000000000000000000000000000000000000000000000000000
1028226757110044676000000000428286762189472245100000043900000000000000BLIL.4006623113BMFW-0000000000MOMPATI S KADI 00000000000000000000000000000000000000000000000000000000000000000
1028226757110044676000000000528126762141728165100000132868000000000000BLIL.0000527008ULM3-0000000000OLEBOGENG MOAMP00000000000000000000000000000000000000000000000000000000000000000
1028226757110044676000000000628126762284882571100000011996000000000000BLIL.4000672782BMFW-0000000000PEARL KAONE KGO00000000000000000000000000000000000000000000000000000000000000000
1028226757110044676000000000728166762280932677100000024918000000000000BLIL.4000566511ULM5-0000000000EDWARD MOTSWETL00000000000000000000000000000000000000000000000000000000000000000
1028226757110044676000000000828516762343063658100000016897000000000000BLIL.4001722305BMFW-0000000000THABO KEBAKGANE00000000000000000000000000000000000000000000000000000000000000000
1028226757110044676000000000928126762577411699100000050000000000000000BLIL.4005603224ULMG-0000000000RONNIE PHUTHEGO00000000000000000000000000000000000000000000000000000000000000000
1028226757110044676000000001028146762095284099100000014775000000000000BLIL.0000081929ULP1-0000000000MOLOME OTSILE  00000000000000000000000000000000000000000000000000000000000000000
1028226757110044676000000001128166762089888683100000107625000000000000BLIL.4007253837MFDS-0000000000GOFAONE MURIEL 00000000000000000000000000000000000000000000000000000000000000000
1028226757110044676000000001228516762593938164100000016100000000000000BLIL.4005756253BMFW-0000000000NDIKO PETER    00000000000000000000000000000000000000000000000000000000000000000
1028226757110044676000000001328186762028441541100000064452000000000000BLIL.4001108230ULM3-0000000000SAMUEL SEABE PO00000000000000000000000000000000000000000000000000000000000000000
1028226757110044676000000001428286762400529775100000021525000000000000BLIL.4005686543URA1-0000000000OARABILE MAVIS 00000000000000000000000000000000000000000000000000000000000000000
1028226757110044676000000001528236762185195388100000130000000000000000BLIL.4006921646MFDS-0000000000LEDIA MARENGA  00000000000000000000000000000000000000000000000000000000000000000
1028226757110044676000000001628146762298175847100000495500000000000000BLIL.4000835693URA1-0000000000VICTOR RAMALEPA00000000000000000000000000000000000000000000000000000000000000000
1028226757110044676000000001728286762113791752100000133100000000000000BLIL.4002872944ULMG-0000000000NAOMI MONTWEDI 00000000000000000000000000000000000000000000000000000000000000000
1028226757110044676000000001828286762140989081100000010000000000000000BLIL.4006007795BMFW-0000000000ONEETSE LINDA B00000000000000000000000000000000000000000000000000000000000000000
1028226757110044676000000001928316762757915544100000040500000000000000BLIL.4003436051ULM3-0000000000MATHUDI MAKGALE00000000000000000000000000000000000000000000000000000000000000000
1028226757110044676000000002028286762367296988100000032025000000000000BLIL.4005537835URA1-0000000000KELEBOGILE DITI00000000000000000000000000000000000000000000000000000000000000000
1028226757110044676000000002128306762355336770100000013545000000000000BLIL.4002950011BMFW-0000000000THATO PHILLIPO 00000000000000000000000000000000000000000000000000000000000000000
1028226757110044676000000002228286762126280130100000018962000000000000BLIL.4002524872BMFW-0000000000NALEDI KEFITILE00000000000000000000000000000000000000000000000000000000000000000
1028226757110044676000000002328236762234267369100000067216000000000000BLIL.4003565763ULM3-0000000000ICE BREAKERS SE00000000000000000000000000000000000000000000000000000000000000000
1028226757110044676000000002428286762349823593100000023459000000000000BLIL.4002615877BMFW-0000000000RASEPATELA MASA00000000000000000000000000000000000000000000000000000000000000000
1028226757110044676000000002528236762316259127100000022601000000000000BLIL.4004797457ULP1-0000000000BAGANNE BOLEKIL00000000000000000000000000000000000000000000000000000000000000000
1028226757110044676000000002628526762391959453100000014665000000000000BLIL.4004758516BMFW-0000000000MMEIKI MAGGIE G00000000000000000000000000000000000000000000000000000000000000000
1028226757110044676000000002728166762754887944100000070500000000000000BLIL.4005659966BMFW-0000000000MARY-ANNE FITZS00000000000000000000000000000000000000000000000000000000000000000
1028226757110044676000000002828286762146590494100000071663000000000000BLIL.4004308563URA1-0000000000THULAGANYO MOSW00000000000000000000000000000000000000000000000000000000000000000
1028226757110044676000000002928186762188388899100000010500000000000000BLIL.4001481864URA1-0000000000KENEILWE KGAKIS00000000000000000000000000000000000000000000000000000000000000000
1028226757110044676000000003028236762056211718100000028316000000000000BLIL.4001630663BMFW-0000000000NYALADZI MONYAT00000000000000000000000000000000000000000000000000000000000000000
1028226757110044676000000003128286762529001331100000038500000000000000BLIL.4004044492ULMG-0000000000KEAMOGETSE MMOK00000000000000000000000000000000000000000000000000000000000000000
1028226757110044676000000003228146762307290651100000042845000000000000BLIL.0000239706BMFW-0000000000BUANG LESO     00000000000000000000000000000000000000000000000000000000000000000
1028226757110044676000000003328286762401211355100000040000000000000000BLIL.4006501375BMFW-0000000000JULIA MMEREKI  00000000000000000000000000000000000000000000000000000000000000000
1028226757110044676000000003428146762258077380100000009800000000000000BLIL.4006959693BMFW-0000000000KITSO MOTHELO  00000000000000000000000000000000000000000000000000000000000000000
1028226757110044676000000003528556762379397005100000022500000000000000BLIL.4007264616MFDS-0000000000IKGOPOLENG MATH00000000000000000000000000000000000000000000000000000000000000000
1028226757110044676000000003628146762314208142100000040969000000000000BLIL.4001858988BMFW-0000000000TUMISANG LIONEL00000000000000000000000000000000000000000000000000000000000000000
1028226757110044676000000003728896762730823920100000037300000000000000BLIL.4006801541BMFW-0000000000KEARATA FRANCE 00000000000000000000000000000000000000000000000000000000000000000
1028226757110044676000000003828126762321858063100000094626000000000000BLIL.4007080119PSWL-0000000000TUMELO THABO MO00000000000000000000000000000000000000000000000000000000000000000
1028226757110044676000000003928286762419956175100000032500000000000000BLIL.4006911449MFDS-0000000000BAKOTELO MOAGIS00000000000000000000000000000000000000000000000000000000000000000
1028226757110044676000000004028166762147237483100000033075000000000000BLIL.4004834623ULP1-0000000000TSHOTLEGO MOLEL00000000000000000000000000000000000000000000000000000000000000000
1028226757110044676000000004128556762305435366100000055676000000000000BLIL.4004978370URA1-0000000000TIROYAONE KESII00000000000000000000000000000000000000000000000000000000000000000
1028226757110044676000000004228286762372789481100000035000000000000000BLIL.4006993437MFDS-0000000000TSHEBETSO GOMOS00000000000000000000000000000000000000000000000000000000000000000
1028226757110044676000000004328126762597213885100000022383000000000000BLIL.4004382511BMFW-0000000000TSHEPO MABELE  00000000000000000000000000000000000000000000000000000000000000000
1028226757110044676000000004428236762720231969100000011865000000000000BLIL.4006262713BMFW-0000000000TSHEGOFATSO MOT00000000000000000000000000000000000000000000000000000000000000000
1028226757110044676000000004528186762598916652100000026700000000000000BLIL.4006940492BMFW-0000000000MPHO MPITSE    00000000000000000000000000000000000000000000000000000000000000000
1028226757110044676000000004628516762245936614100000014112000000000000BLIL.4004255178BMFW-0000000000BAFENTSE BULU  00000000000000000000000000000000000000000000000000000000000000000
1028226757110044676000000004728286762086933605100000021579000000000000BLIL.0000712465BMFW-0000000000LORATO ITUMELEN00000000000000000000000000000000000000000000000000000000000000000
1028226757110044676000000004828236762334783679100000025500000000000000BLIL.4006105973ULP1-0000000000SELOKA NCHINANO00000000000000000000000000000000000000000000000000000000000000000
1028226757110044676000000004928606762398679822100000017750000000000000BLIL.4004743107BMFW-0000000000KEBONYE MAKANYE00000000000000000000000000000000000000000000000000000000000000000
1028226757110044676000000005028556762667547841100000019100000000000000BLIL.4006761416BMFW-0000000000OBOTSAMANG NTSH00000000000000000000000000000000000000000000000000000000000000000
1028226757110044676000000005128126762722564475100000034400000000000000BLIL.04003834837LORE0000000000SHAMEELA PANDOR00000000000000000000000000000000000000000000000000000000000000000
1028226757110044676000000005228126762044728395100000035500000000000000BLIL.4004733772ULMG-0000000000ONTIBILE IVY MO00000000000000000000000000000000000000000000000000000000000000000
1028226757110044676000000005328526762153678960100000022300000000000000BLIL.4007302317BMFW-0000000000GLORIA KGANTUMO00000000000000000000000000000000000000000000000000000000000000000
1028226757110044676000000005428236762280205173100000016905000000000000BLIL.4005263834BMFW-0000000000KAGISANO SAXAGO00000000000000000000000000000000000000000000000000000000000000000
1028226757110044676000000005528506762177824151100000010500000000000000BLIL.4003260212ULM5-0000000000TLHALEFANG SEBO00000000000000000000000000000000000000000000000000000000000000000
1028226757110044676000000005628236762705001725100000021525000000000000BLIL.4005782818ULP1-0000000000GIDEON KAKISO  00000000000000000000000000000000000000000000000000000000000000000
1028226757110044676000000005728166762450751394100000018585000000000000BLIL.4005065612BMFW-0000000000SILAS NOBUKHOSI00000000000000000000000000000000000000000000000000000000000000000
1028226757110044676000000005828286762086981703100000029659000000000000BLIL.4002333257BMFW-0000000000MOGOMOTSI MOHIN00000000000000000000000000000000000000000000000000000000000000000
1028226757110044676000000005928236762148831797100000032025000000000000BLIL.4005857934ULP1-0000000000TSHEPO KEOAGILE00000000000000000000000000000000000000000000000000000000000000000
1028226757110044676000000006028306762209128950100000021200000000000000BLIL.4005712841BMFW-0000000000ONKAGETSE DINTW00000000000000000000000000000000000000000000000000000000000000000
1028226757110044676000000006128166757130017463100000018500000000000000BLIL.4006377865BMFW-0000000000SINNAH SANELISI00000000000000000000000000000000000000000000000000000000000000000
1028226757110044676000000006228306762458862771100000052500000000000000BLIL.4006535124MFDS-0000000000ONKGOPOTSE MOTA00000000000000000000000000000000000000000000000000000000000000000
1028226757110044676000000006328456762269651628100000016100000000000000BLIL.4006768298BMFW-0000000000BARATANG MARANK00000000000000000000000000000000000000000000000000000000000000000
1028226757110044676000000006428236762353671201100000022500000000000000BLIL.4006891247MFDS-0000000000KEAMOGETSE BOIK00000000000000000000000000000000000000000000000000000000000000000
1028226757110044676000000006528526762304136246100000021525000000000000BLIL.4005853998ULP1-0000000000LEMOGANG M DITS00000000000000000000000000000000000000000000000000000000000000000
1028226757110044676000000006628146762050228909100000073490000000000000BLIL.4006469662PSTA-0000000000PITSO TSHEPHANG00000000000000000000000000000000000000000000000000000000000000000
1028226757110044676000000006728186762027597064100000024585000000000000BLIL.4004051879BMFW-0000000000BATSILE TUELO B00000000000000000000000000000000000000000000000000000000000000000
1028226757110044676000000006828146762348347776100000014112000000000000BLIL.4004102636BMFW-0000000000KITSO C MATSHAM00000000000000000000000000000000000000000000000000000000000000000
1028226757110044676000000006928826762489177149100000013000000000000000BLIL.4007262818BMFW-0000000000THUTO LUFU     00000000000000000000000000000000000000000000000000000000000000000
1028226757110044676000000007028456762616053865100000028050000000000000BLIL.4005686721ULM5-0000000000MOKGANEDI SAKAR00000000000000000000000000000000000000000000000000000000000000000
1028226757110044676000000007128546762369348349100000154526000000000000BLIL.4003209496BMKS-0000000000ALAN JAMES HARD00000000000000000000000000000000000000000000000000000000000000000
1028226757110044676000000007228896762731086890100000029600000000000000BLIL.4006687173BMFW-0000000000LINDIWE JEAN NK00000000000000000000000000000000000000000000000000000000000000000
1028226757110044676000000007328286762385464476100000022550000000000000BLIL.4005674962ULP1-0000000000GARETSHWANE SET00000000000000000000000000000000000000000000000000000000000000000
1028226757110044676000000007428286762087030236100000049005000000000000BLIL.4004262953URA1-0000000000THATANO TERSIAN00000000000000000000000000000000000000000000000000000000000000000
1028226757110044676000000007528236762519072483100000019000000000000000BLIL.4006773958BMFW-0000000000KESENYAKANG KES00000000000000000000000000000000000000000000000000000000000000000
1028226757110044676000000007628826762469829869100000068737000000000000BLIL.4005676841PSTA-0000000000MOSETSANA GAOTS00000000000000000000000000000000000000000000000000000000000000000
1028226757110044676000000007728166762187575679100000014586000000000000BLIL.4001532168BMFW-0000000000OSUPILE OBED BA00000000000000000000000000000000000000000000000000000000000000000
1028226757110044676000000007828286762365761355100000015900000000000000BLIL.4007081571BMFW-0000000000KAGISO MABABE  00000000000000000000000000000000000000000000000000000000000000000
1028226757110044676000000007928516762610265424100000037900000000000000BLIL.4006085179BMFW-0000000000LEAH ONALENNA T00000000000000000000000000000000000000000000000000000000000000000
1028226757110044676000000008028286762113795572100000029520000000000000BLIL.4003880951ULM3-0000000000XOLO PHILLIP K 00000000000000000000000000000000000000000000000000000000000000000
1028226757110044676000000008128286762323398900100000010500000000000000BLIL.4006952691BMFW-0000000000GAOPALELWE. C M00000000000000000000000000000000000000000000000000000000000000000
1028226757110044676000000008228536762511906911100000018400000000000000BLIL.4005998421BMFW-0000000000BENJAMIN MODISE00000000000000000000000000000000000000000000000000000000000000000
1028226757110044676000000008328146762261679149100000010000000000000000BLIL.4003541404URA1-0000000000KAGISO MOOKA   00000000000000000000000000000000000000000000000000000000000000000
1028226757110044676000000008428286762523473304100000040500000000000000BLIL.4005453275BMFW-0000000000MOGOLEGI RAKGOM00000000000000000000000000000000000000000000000000000000000000000
1028226757110044676000000008528286762194840974100000026133000000000000BLIL.4001486440BMFW-0000000000BIANCA LEAH NTH00000000000000000000000000000000000000000000000000000000000000000
1028226757110044676000000008628826762548445429100000023731000000000000BLIL.4002671910URA1-0000000000THERISANYO MOTL00000000000000000000000000000000000000000000000000000000000000000
1028226757110044676000000008728286762372781205100000032025000000000000BLIL.4006131130ULM3-0000000000KEDIBONYE MACHE00000000000000000000000000000000000000000000000000000000000000000
1028226757110044676000000008828236762020363404100000027011000000000000BLIL.4004133364BMFW-0000000000BAJAKI TLOTLEGO00000000000000000000000000000000000000000000000000000000000000000
1028226757110044676000000008928146762556600700100000025469000000000000BLIL.4004331667BMFW-0000000000BOYCE BOYO GASE00000000000000000000000000000000000000000000000000000000000000000
1028226757110044676000000009028236762435220926100000019955000000000000BLIL.4004797334BMFW-0000000000THABANG EMMANUE00000000000000000000000000000000000000000000000000000000000000000
1028226757110044676000000009128246762202371572100000017500000000000000BLIL.4005769759BMFW-0000000000PIUS DIMPE     00000000000000000000000000000000000000000000000000000000000000000
1028226757110044676000000009228826762720789140100000033000000000000000BLIL.4006054239URA1-0000000000KEORATILE MOSIM00000000000000000000000000000000000000000000000000000000000000000
1028226757110044676000000009328236762585951710100000020600000000000000BLIL.4006931306BMFW-0000000000ARON NGAKANE   00000000000000000000000000000000000000000000000000000000000000000
1028226757110044676000000009428146762217340926100000031907000000000000BLIL.4001123341ULP1-0000000000MARELEDI PHOKOJ00000000000000000000000000000000000000000000000000000000000000000
1028226757110044676000000009528456762400042371100000024962000000000000BLIL.4000730691BMFW-0000000000EUGENE MOTHUSI 00000000000000000000000000000000000000000000000000000000000000000
1028226757110044676000000009628526762636475289100000055676000000000000BLIL.4004187957URA1-0000000000TEBOGO MATHODI 00000000000000000000000000000000000000000000000000000000000000000
1028226757110044676000000009728306762325150803100000079860000000000000BLIL.4003731269URA1-0000000000TAMBONA G MONYA00000000000000000000000000000000000000000000000000000000000000000
1028226757110044676000000009828186762397657746100000050655000000000000BLIL.4001964751BMFW-0000000000JANE JOHN ONKOK00000000000000000000000000000000000000000000000000000000000000000
1028226757110044676000000009928526762172972559100000091108000000000000BLIL.4003797556BMFW-0000000000KELETLWAELE M M00000000000000000000000000000000000000000000000000000000000000000
1028226757110044676000000010028146762094199140100000097500000000000000BLIL.4006948416MFRA-0000000000REALREACH (PTY)00000000000000000000000000000000000000000000000000000000000000000
1028226757110044676000000010128316762184129411100000025000000000000000BLIL.4005865511ULP1-0000000000SEELETSO KEBOPE00000000000000000000000000000000000000000000000000000000000000000
1028226757110044676000000010228316762076151332100000026164000000000000BLIL.4001384292URA1-0000000000GOFAONE KGOMO  00000000000000000000000000000000000000000000000000000000000000000
1028226757110044676000000010328506762180278147100000015860000000000000BLIL.4002642488BMFW-0000000000CATHERINE NEO M00000000000000000000000000000000000000000000000000000000000000000
1028226757110044676000000010428286762087022259100000027809000000000000BLIL.4002338095BMFW-0000000000LEOKEDITSWE LES00000000000000000000000000000000000000000000000000000000000000000
1028226757110044676000000010528456762182692907100000010100000000000000BLIL.4007161488BMFW-0000000000TSHOLOFELO JOOD00000000000000000000000000000000000000000000000000000000000000000
1028226757110044676000000010628186762317531326100000008200000000000000BLIL.4005674629BMFW-0000000000BOTSHELO MFALAD00000000000000000000000000000000000000000000000000000000000000000
1028226757110044676000000010728286762089394755100000061105000000000000BLIL.4004285981ULP1-0000000000EWETSE THOANO  00000000000000000000000000000000000000000000000000000000000000000
1028226757110044676000000010828606762679990004100000025000000000000000BLIL.4007140834MFDS-0000000000GAOTHOBOGWE SET00000000000000000000000000000000000000000000000000000000000000000
1028226757110044676000000010928506762278968585100000009848000000000000BLIL.4001835845BMFW-0000000000GAOLATLHE KGATH00000000000000000000000000000000000000000000000000000000000000000
1028226757110044676000000011028176762237392741100000020236000000000000BLIL.0000401672BMFW-0000000000DITHUSO MATTHEW00000000000000000000000000000000000000000000000000000000000000000
1028226757110044676000000011128166762323187155100000017300000000000000BLIL.4006939037BMFW-0000000000DIMPHO NTESANG 00000000000000000000000000000000000000000000000000000000000000000
1028226757110044676000000011228186762518919462100000021525000000000000BLIL.4005998706ULP1-0000000000BOLOKANG MANGOR00000000000000000000000000000000000000000000000000000000000000000
1028226757110044676000000011328126762393150520100000015400000000000000BLIL.4007244898BMFW-0000000000MOGOMOTSI GAORA00000000000000000000000000000000000000000000000000000000000000000
1028226757110044676000000011428146762539939621100000020500000000000000BLIL.4004614974ULM5-0000000000SELLO LAWRENCE 00000000000000000000000000000000000000000000000000000000000000000
1028226757110044676000000011528526762568561065100000014800000000000000BLIL.4005640082BMFW-0000000000ROBERT GAEBOLAE00000000000000000000000000000000000000000000000000000000000000000
1028226757110044676000000011628166762754048762100000089700000000000000BLIL.4006700030BMFW-0000000000BAKANA KARABO  00000000000000000000000000000000000000000000000000000000000000000
1028226757110044676000000011728546762087007433100000160125000000000000BLIL.4005667284MFRA-0000000000ONALENNA PRISCI00000000000000000000000000000000000000000000000000000000000000000
1028226757110044676000000011828286762114076038100000014332000000000000BLIL.4002564620BMFW-0000000000WINDY MOGOTSI  00000000000000000000000000000000000000000000000000000000000000000
1028226757110044676000000011928186762218671411100000081235000000000000BLIL.4006231556PSTA-0000000000ODIRILE OTTO IT00000000000000000000000000000000000000000000000000000000000000000
1028226757110044676000000012028286762190809263100000030250000000000000BLIL.4004988682ULP1-0000000000MALEBOGO MARTHA00000000000000000000000000000000000000000000000000000000000000000
1028226757110044676000000012128516762551482038100000018500000000000000BLIL.4005898704BMFW-0000000000KWACHENA MAJERE00000000000000000000000000000000000000000000000000000000000000000
1028226757110044676000000012228506762689211416100000020000000000000000BLIL.4007289434MFRA-0000000000ANNAH KOLOBE   00000000000000000000000000000000000000000000000000000000000000000
1028226757110044676000000012328196762087963883100000010500000000000000BLIL.4000006555ULM5-0000000000MORGAN MAZHAWID00000000000000000000000000000000000000000000000000000000000000000
1028226757110044676000000012428556762763966896100000022500000000000000BLIL.4006890843MFDS-0000000000BOIPUSO KATJODU00000000000000000000000000000000000000000000000000000000000000000
1028226757110044676000000012528516762642256384100000020500000000000000BLIL.4006365488ULP1-0000000000KHUMOYAME MPOTO00000000000000000000000000000000000000000000000000000000000000000
1028226757110044676000000012628826762695268344100000030500000000000000BLIL.4006001456URA1-0000000000MONKGOGI KARABO00000000000000000000000000000000000000000000000000000000000000000
1028226757110044676000000012728236762664074061100000027000000000000000BLIL.4006896289BMFW-0000000000LOPANG NNOI    00000000000000000000000000000000000000000000000000000000000000000
1028226757110044676000000012828126762177643593100000010500000000000000BLIL.4001507143URA1-0000000000MMAONYANA MAKAB00000000000000000000000000000000000000000000000000000000000000000
1028226757110044676000000012928146762106163827100000031258000000000000BLIL.4002859209BMFW-0000000000MOTHIBI MOSIMAN00000000000000000000000000000000000000000000000000000000000000000
1028226757110044676000000013028316762444509759100000025200000000000000BLIL.4005588145BMFW-0000000000ISHMAEL NELSON 00000000000000000000000000000000000000000000000000000000000000000
1028226757110044676000000013128236762369598910100000022500000000000000BLIL.4006492114MFDS-0000000000THAPELO MORAPED00000000000000000000000000000000000000000000000000000000000000000
1028226757110044676000000013228456762329867115100000015559000000000000BLIL.4001684476BMFW-0000000000ITUMELENG MOSWE00000000000000000000000000000000000000000000000000000000000000000
1028226757110044676000000013328286762627190383100000021800000000000000BLIL.4006237798BMFW-0000000000OFENTSE MOLEFE 00000000000000000000000000000000000000000000000000000000000000000
1028226757110044676000000013428826762740153979100000013000000000000000BLIL.4005492611BMFW-0000000000DIPUO DISONO TH00000000000000000000000000000000000000000000000000000000000000000
1028226757110044676000000013528456762135629220100000040596000000000000BLIL.4003125218ULMG-0000000000THATO CEDRIC LE00000000000000000000000000000000000000000000000000000000000000000
1028226757110044676000000013628456762330094137100000330750000000000000BLIL.4005018576MFRA-0000000000XIDLO ENTERPRIS00000000000000000000000000000000000000000000000000000000000000000
1028226757110044676000000013728456762413978125100000110000000000000000BLIL.4003010899ULMG-0000000000JUBILATION ENTE00000000000000000000000000000000000000000000000000000000000000000
1028226757110044676000000013828306762495883847100000029173000000000000BLIL.4003040929BMFW-0000000000RAMASELESELE KG00000000000000000000000000000000000000000000000000000000000000000
1028226757110044676000000013928146762356621039100000033626000000000000BLIL.4004374659URA1-0000000000KEAMOGETSWE M M00000000000000000000000000000000000000000000000000000000000000000
1028226757110044676000000014028126762206279524100000020900000000000000BLIL.4007303410BMFW-0000000000LEBOGANG MODUMO00000000000000000000000000000000000000000000000000000000000000000
1028226757110044676000000014128236762343904133100000027286000000000000BLIL.4003651239ULM5-0000000000NTOKOZO CHUKIE 00000000000000000000000000000000000000000000000000000000000000000
1028226757110044676000000014228246762010432235100000161051000000000000BLIL.4000778073ULM3-0000000000BIGZY INVESTMEN00000000000000000000000000000000000000000000000000000000000000000
1028226757110044676000000014328236762695277981100000021700000000000000BLIL.4006740943BMFW-0000000000MPHO DODO      00000000000000000000000000000000000000000000000000000000000000000
1028226757110044676000000014428286762169808650100000018505000000000000BLIL.4000354164BMFW-0000000000THABO MABEO    00000000000000000000000000000000000000000000000000000000000000000
1028226757110044676000000014528186762483048940100000021300000000000000BLIL.4006924288BMFW-0000000000BRIDGET ANANIA 00000000000000000000000000000000000000000000000000000000000000000
1028226757110044676000000014628146762388437660100000026741000000000000BLIL.4001989846BMFW-0000000000MOSES TSALAILE 00000000000000000000000000000000000000000000000000000000000000000
1028226757110044676000000014728516762772945716100000019200000000000000BLIL.4007165424BMFW-0000000000SABATA DUMANO  00000000000000000000000000000000000000000000000000000000000000000
1028226757110044676000000014828546762298175847100000106250000000000000BLIL.4005737978URA1-0000000000VICTOR RAMALEPA00000000000000000000000000000000000000000000000000000000000000000
1028226757110044676000000014928286762113371314100000019431000000000000BLIL.0000711354BMFW-0000000000KAGISO TUMELO M00000000000000000000000000000000000000000000000000000000000000000
1028226757110044676000000015028236762532700061100000023779000000000000BLIL.4003437439BMFW-0000000000BIKKY SEGAKISI 00000000000000000000000000000000000000000000000000000000000000000
1028226757110044676000000015128146762262225537100000037100000000000000BLIL.4001358425BMKS-0000000000BRIDGETTE DITHO00000000000000000000000000000000000000000000000000000000000000000
1028226757110044676000000015228146762326164639100000030500000000000000BLIL.4004185971ULP1-0000000000KOKETSO KERAANG00000000000000000000000000000000000000000000000000000000000000000
1028226757110044676000000015328286762150242099100000041096000000000000BLIL.4003787252BMFW-0000000000TLOTLO MANTLE  00000000000000000000000000000000000000000000000000000000000000000
1028226757110044676000000015428236762550344528100000022050000000000000BLIL.4003953790URA1-0000000000AKOFANG MOTLHAG00000000000000000000000000000000000000000000000000000000000000000
1028226757110044676000000015528286762324157115100000068531000000000000BLIL.4007104894PSWL-0000000000BOITSHEPO MOLEE00000000000000000000000000000000000000000000000000000000000000000
1028226757110044676000000015628506762758930616100000011600000000000000BLIL.4007303656BMFW-0000000000OBAKENG BAITLHA00000000000000000000000000000000000000000000000000000000000000000
1028226757110044676000000015728546762511438112100000177610000000000000BLIL.4005909624PSWL-0000000000OLIVIAH KAMEUNG00000000000000000000000000000000000000000000000000000000000000000
1028226757110044676000000015828826762435047560100000026400000000000000BLIL.4006452609BMFW-0000000000LANDULANI WENDY00000000000000000000000000000000000000000000000000000000000000000
1028226757110044676000000015928146762514390492100000024200000000000000BLIL.4005494930BMFW-0000000000GOABAONE KETLAM00000000000000000000000000000000000000000000000000000000000000000
1028226757110044676000000016028146762348078785100000018249000000000000BLIL.4000946775BMFW-0000000000TSOTLHE MACHIBA00000000000000000000000000000000000000000000000000000000000000000
1028226757110044676000000016128236762582176080100000023816000000000000BLIL.4004545529BMFW-0000000000KEDIRENG PITLAG00000000000000000000000000000000000000000000000000000000000000000
1028226757110044676000000016228236762125206103100000022336000000000000BLIL.4000615821BMFW-0000000000BEE GUGA       00000000000000000000000000000000000000000000000000000000000000000
1028226757110044676000000016328316762024699897100000040000000000000000BLIL.4005818302ULMG-0000000000GOFAONE BOTLHOL00000000000000000000000000000000000000000000000000000000000000000
1028226757110044676000000016428236757200037317100000049065000000000000BLIL.4005508604PSTA-0000000000SAKO MOTAKATSHI00000000000000000000000000000000000000000000000000000000000000000
1028226757110044676000000016528456762571530932100000054500000000000000BLIL.04005860414LORE0000000000CHABANE CINDY C00000000000000000000000000000000000000000000000000000000000000000
1028226757110044676000000016628146762457680249100000012763000000000000BLIL.4002564361URA1-0000000000KEBADIRETSE DAI00000000000000000000000000000000000000000000000000000000000000000
1028226757110044676000000016728526762256574247100000013891000000000000BLIL.4004806391BMFW-0000000000MMARONIE WARONA00000000000000000000000000000000000000000000000000000000000000000
1028226757110044676000000016828286762746592238100000011300000000000000BLIL.4006653502BMFW-0000000000MOITSHEPHI LORA00000000000000000000000000000000000000000000000000000000000000000
1028226757110044676000000016928246762517569127100000021700000000000000BLIL.4006967042BMFW-0000000000OARABILE RADITL00000000000000000000000000000000000000000000000000000000000000000
1028226757110044676000000017028286757360008208100000011721000000000000BLIL.4001603329BMFW-0000000000MOETELEDI BALI 00000000000000000000000000000000000000000000000000000000000000000
1028226757110044676000000017128166762007197694100000014445000000000000BLIL.4003280129BMFW-0000000000GLADYS CONNIE D00000000000000000000000000000000000000000000000000000000000000000
1028226757110044676000000017228186762000211946100000023731000000000000BLIL.4003727199URA1-0000000000ANNASTACIA SIPH00000000000000000000000000000000000000000000000000000000000000000
1028226757110044676000000017328316762268979576100000030000000000000000BLIL.4005606620URA1-0000000000TSHEGOFATSO KEO00000000000000000000000000000000000000000000000000000000000000000
1028226757110044676000000017428146762336420956100000025500000000000000BLIL.4002851675URA1-0000000000DUNCAN BONANG R00000000000000000000000000000000000000000000000000000000000000000
1028226757110044676000000017528246762126078139100000032500000000000000BLIL.4006842086MFDS-0000000000EMILY OTSHOLETS00000000000000000000000000000000000000000000000000000000000000000
1028226757110044676000000017628286762694258916100000037700000000000000BLIL.4006875782BMFW-0000000000MOMPATI BATSHED00000000000000000000000000000000000000000000000000000000000000000
1028226757110044676000000017728566762685161532100000023200000000000000BLIL.4006871380BMFW-0000000000GORATA MOTSUMI 00000000000000000000000000000000000000000000000000000000000000000
1028226757110044676000000017828546762295546033100000090000000000000000BLIL.0000190708ULMG-0000000000TEBOGO MIEDOW M00000000000000000000000000000000000000000000000000000000000000000
1028226757110044676000000017928286762277529130100000033550000000000000BLIL.4005972607URA1-0000000000YAONE BRIDGET M00000000000000000000000000000000000000000000000000000000000000000
1028226757110044676000000018028166762093898008100000026932000000000000BLIL.4000648886BMFW-0000000000STELLAH TSHOLOF00000000000000000000000000000000000000000000000000000000000000000
1028226757110044676000000018128146762093129049100000135513000000000000BLIL.4004830001PSTA-0000000000GORATA THANDY M00000000000000000000000000000000000000000000000000000000000000000
1028226757110044676000000018228286762194841592100000035700000000000000BLIL.4006678142BMFW-0000000000REBAONE CHIMELA00000000000000000000000000000000000000000000000000000000000000000
1028226757110044676000000018328306762182205297100000042100000000000000BLIL.4006992295BMFW-0000000000MATHAELAKGANG T00000000000000000000000000000000000000000000000000000000000000000
1028226757110044676000000018428286762087005198100000033967000000000000BLIL.4000449406BMFW-0000000000DICKSON NYEPI  00000000000000000000000000000000000000000000000000000000000000000
1028226757110044676000000018528516762441361821100000022973000000000000BLIL.4002399332BMFW-0000000000CHIKA MABUKU   00000000000000000000000000000000000000000000000000000000000000000
1028226757110044676000000018628316762312670210100000033429000000000000BLIL.4001083931BMFW-0000000000BAIKGANETSI OTH00000000000000000000000000000000000000000000000000000000000000000
1028226757110044676000000018728286762060511005100000036375000000000000BLIL.4001252833BMFW-0000000000ANNA LOLO LESET00000000000000000000000000000000000000000000000000000000000000000
1028226757110044676000000018828546762298175847100000131250000000000000BLIL.4001707692URA1-0000000000VICTOR RAMALEPA00000000000000000000000000000000000000000000000000000000000000000
1028226757110044676000000018928146762021085817100000055676000000000000BLIL.4004431512URA1-0000000000ANNAH KEPADISA 00000000000000000000000000000000000000000000000000000000000000000
1028226757110044676000000019028126762414494229100000013300000000000000BLIL.4006907426BMFW-0000000000THAMALATSANG TO00000000000000000000000000000000000000000000000000000000000000000
1028226757110044676000000019128556762374675761100000030000000000000000BLIL.4005170764URA1-0000000000MASILO GODFREY 00000000000000000000000000000000000000000000000000000000000000000
1028226757110044676000000019228286762194830652100000015559000000000000BLIL.4001413467BMFW-0000000000MOMPOLOKI MASIL00000000000000000000000000000000000000000000000000000000000000000
1028226757110044676000000019328286762087022572100000021204000000000000BLIL.0000092203BMFW-0000000000KESAOBAKA SENYA00000000000000000000000000000000000000000000000000000000000000000
1028226757110044676000000019428286762320092258100000110550000000000000BLIL.4005147709ULMG-0000000000TEBOGO SHALEKA 00000000000000000000000000000000000000000000000000000000000000000
1028226757110044676000000019528126762318025310100000042000000000000000BLIL.4006826084BMFW-0000000000BOIPELO TIEGO M00000000000000000000000000000000000000000000000000000000000000000
1028226757110044676000000019628286762311592481100000019966000000000000BLIL.0000437423BMFW-0000000000IVY NAMETSEGANG00000000000000000000000000000000000000000000000000000000000000000
1028226757110044676000000019728546762299211286100000585822000000000000BLIL.4005723751PSWL-0000000000LETSOGILE M MOT00000000000000000000000000000000000000000000000000000000000000000
1028226757110044676000000019828316762177959825100000052243000000000000BLIL.4006293409PSTA-0000000000PONO MOLOI     00000000000000000000000000000000000000000000000000000000000000000
1028226757110044676000000019928126762069615501100000037972000000000000BLIL.4003156726BMFW-0000000000KEITUMETSE MPOT00000000000000000000000000000000000000000000000000000000000000000
1028226757110044676000000020028456762543814877100000015645000000000000BLIL.4005905280BMFW-0000000000METLHAETSILE MO00000000000000000000000000000000000000000000000000000000000000000
1028226757110044676000000020128236762357271403100000021525000000000000BLIL.4005731273ULP1-0000000000MANTLENYANE LEL00000000000000000000000000000000000000000000000000000000000000000
1028226757110044676000000020228286762372774549100000018290000000000000BLIL.4003783800BMFW-0000000000PATRICK ITSHEKE00000000000000000000000000000000000000000000000000000000000000000
1028226757110044676000000020328196762132332933100000032500000000000000BLIL.4006863389MFDS-0000000000LESEDI GOTHATAO00000000000000000000000000000000000000000000000000000000000000000
1028226757110044676000000020428286762150570416100000105000000000000000BLIL.0000239146URA1-0000000000MPHO MONGOBOTI 00000000000000000000000000000000000000000000000000000000000000000
1028226757110044676000000020528306762377569630100000039477000000000000BLIL.4002994172BMFW-0000000000KOPANO PHOMETSI00000000000000000000000000000000000000000000000000000000000000000
1028226757110044676000000020628286762150248790100000056286000000000000BLIL.0000629646BMFW-0000000000JOHN MPAPHI MAS00000000000000000000000000000000000000000000000000000000000000000
1028226757110044676000000020728146762078215582100000020000000000000000BLIL.4005640383URA1-0000000000ONALENNA LINDY 00000000000000000000000000000000000000000000000000000000000000000
1028226757110044676000000020828236760720006126100000018841000000000000BLIL.4001379150BMFW-0000000000DAVID MTHETHELE00000000000000000000000000000000000000000000000000000000000000000
1028226757110044676000000020928236762347725246100000028667000000000000BLIL.4004816734BMFW-0000000000CALVIN DIKAGO  00000000000000000000000000000000000000000000000000000000000000000
1028226757110044676000000021028186762029244225100000100500000000000000BLIL.4005273837URA1-0000000000PHILLIP ODUETSE00000000000000000000000000000000000000000000000000000000000000000
1028226757110044676000000021128286762086932110100000044261000000000000BLIL.4004877495PSTA-0000000000MFOLWE BERNARD 00000000000000000000000000000000000000000000000000000000000000000
1028226757110044676000000021228566762322813389100000020500000000000000BLIL.4006812061MFDS-0000000000KEITUMETSE MOLA00000000000000000000000000000000000000000000000000000000000000000
1028226757110044676000000021328166762518685774100000030099000000000000BLIL.4004428799BMFW-0000000000TSHEPO GODFREY 00000000000000000000000000000000000000000000000000000000000000000
1028226757110044676000000021428566762415131226100000032800000000000000BLIL.04005562541MPFP0000000000TSHIAMO KEFORIL00000000000000000000000000000000000000000000000000000000000000000
1028226757110044676000000021528536762605633660100000019800000000000000BLIL.4005947941BMFW-0000000000NALEDI GAELEBAL00000000000000000000000000000000000000000000000000000000000000000
1028226757110044676000000021628166762661789506100000020600000000000000BLIL.4005976122BMFW-0000000000DISHO SHAKOII  00000000000000000000000000000000000000000000000000000000000000000
1028226757110044676000000021728236762601612353100000040000000000000000BLIL.4006578996MFRA-0000000000THABO ABRAHAM  00000000000000000000000000000000000000000000000000000000000000000
1028226757110044676000000021828526762510361843100000077490000000000000BLIL.4003163284BMKS-0000000000PRUDENCE BAKWEN00000000000000000000000000000000000000000000000000000000000000000
1028226757110044676000000021928126762133742579100000022601000000000000BLIL.4004317421ULM5-0000000000KGOMOTSO MPHOSE00000000000000000000000000000000000000000000000000000000000000000
1028226757110044676000000022028146762074088412100000053627000000000000BLIL.4005617221PSTA-0000000000BOINEELO MOTHIB00000000000000000000000000000000000000000000000000000000000000000
1028226757110044676000000022128146762594247324100000026775000000000000BLIL.4005902402BMFW-0000000000KEABETSWE LETSW00000000000000000000000000000000000000000000000000000000000000000
1028226757110044676000000022228826762720789140100000076980000000000000BLIL.4006819225PSTA-0000000000KEORATILE MOSIM00000000000000000000000000000000000000000000000000000000000000000
1028226757110044676000000022328286762580433440100000022550000000000000BLIL.4005809761URA1-0000000000TAWANDA JAMES M00000000000000000000000000000000000000000000000000000000000000000
1028226757110044676000000022428546762298175847100000125000000000000000BLIL.4005738152URA1-0000000000VICTOR RAMALEPA00000000000000000000000000000000000000000000000000000000000000000
1028226757110044676000000022528236762680975277100000020500000000000000BLIL.4006302408ULP1-0000000000PATRICK MAKWACH00000000000000000000000000000000000000000000000000000000000000000
1028226757110044676000000022628456762237907003100000147143000000000000BLIL.4001621527ULP1-0000000000LEVEL TWO (PTY)00000000000000000000000000000000000000000000000000000000000000000
1028226757110044676000000022728196762730465897100000033800000000000000BLIL.4006339718BMFW-0000000000KEOTSHEPHILE RA00000000000000000000000000000000000000000000000000000000000000000
1028226757110044676000000022828286762148677951100000033000000000000000BLIL.4005605666BMFW-0000000000LIFE LEFY MARIT00000000000000000000000000000000000000000000000000000000000000000
1028226757110044676000000022928516762367725458100000042500000000000000BLIL.4006735283MFDS-0000000000SIKIRI MAKANYE 00000000000000000000000000000000000000000000000000000000000000000
1028226757110044676000000023028286762061826130100000053025000000000000BLIL.4005387771ULM5-0000000000MINAH MMONI MOS00000000000000000000000000000000000000000000000000000000000000000
1028226757110044676000000023128286762375482420100000033550000000000000BLIL.4005744973URA1-0000000000BASADI PULE    00000000000000000000000000000000000000000000000000000000000000000
1028226757110044676000000023228166762704864314100000022500000000000000BLIL.4006677942MFDS-0000000000BOINGOTLO OGOLO00000000000000000000000000000000000000000000000000000000000000000
1028226757110044676000000023328166762366756967100000020500000000000000BLIL.4006098895URA1-0000000000STELLA KEFILWEN00000000000000000000000000000000000000000000000000000000000000000
1028226757110044676000000023428186762282476326100000013300000000000000BLIL.4006623854BMFW-0000000000TUMELO LUTHER M00000000000000000000000000000000000000000000000000000000000000000
1028226757110044676000000023528286762365755027100000035368000000000000BLIL.4006850906PSWL-0000000000TLHOMPHO LEINA 00000000000000000000000000000000000000000000000000000000000000000
1028226757110044676000000023628286762347812845100000013700000000000000BLIL.4007067351BMFW-0000000000REFILWE MMIPI  00000000000000000000000000000000000000000000000000000000000000000
1028226757110044676000000023728286762599281517100000017300000000000000BLIL.4005189169BMFW-0000000000LESEGO MPAPHADZ00000000000000000000000000000000000000000000000000000000000000000
1028226757110044676000000023828456762121440185100000037072000000000000BLIL.4001888084URA1-0000000000KEFILWE DESIREE00000000000000000000000000000000000000000000000000000000000000000
1028226757110044676000000023928316762757915544100000048496000000000000BLIL.4005818360PSTA-0000000000MATHUDI MAKGALE00000000000000000000000000000000000000000000000000000000000000000
1028226757110044676000000024028316762278433702100000016214000000000000BLIL.4000295495BMFW-0000000000BASIYI GALEBONW00000000000000000000000000000000000000000000000000000000000000000
1028226757110044676000000024128456762237907003100000147143000000000000BLIL.4001620181ULP1-0000000000LEVEL TWO (PTY)00000000000000000000000000000000000000000000000000000000000000000
1028226757110044676000000024228286762315035651100000027286000000000000BLIL.4003663909URA1-0000000000JENAMISO MBANGI00000000000000000000000000000000000000000000000000000000000000000
1028226757110044676000000024328546762086937532100000066743000000000000BLIL.4005913689PSTA-0000000000BONOLO DINOKOPI00000000000000000000000000000000000000000000000000000000000000000
1028226757110044676000000024428126762360054648100000034961000000000000BLIL.4002683096BMFW-0000000000MOMPATI MAJOLA 00000000000000000000000000000000000000000000000000000000000000000
1028226757110044676000000024528566762766895498100000042000000000000000BLIL.4007252996BMFW-0000000000GALEHUME RATLHA00000000000000000000000000000000000000000000000000000000000000000
1028226757110044676000000024628146762295550547100000019033000000000000BLIL.4002491328ULP1-0000000000RATHAGA SELEKE 00000000000000000000000000000000000000000000000000000000000000000
1028226757110044676000000024728236762063452678100000015582000000000000BLIL.0000386357BMFW-0000000000SEKONGO KATSOTS00000000000000000000000000000000000000000000000000000000000000000
1028226757110044676000000024828286762328559961100000030000000000000000BLIL.4006277994ULMG-0000000000THABISO CAVIN I00000000000000000000000000000000000000000000000000000000000000000
1028226757110044676000000024928146762177719980100000109218000000000000BLIL.4005544830PSTA-0000000000JERRY MOOKETSAN00000000000000000000000000000000000000000000000000000000000000000
1028226757110044676000000025028546762430030156100000196020000000000000BLIL.4006874362PSWL-0000000000TUMELO CONDRAD 00000000000000000000000000000000000000000000000000000000000000000
1028226757110044676000000025128236762668215562100000013700000000000000BLIL.4006640111BMFW-0000000000XHAMME XISHE   00000000000000000000000000000000000000000000000000000000000000000
1028226757110044676000000025228146762514390492100000022601000000000000BLIL.4004757992URA1-0000000000GOABAONE KETLAM00000000000000000000000000000000000000000000000000000000000000000
1028226757110044676000000025328236762611612426100000016065000000000000BLIL.4005411912BMFW-0000000000MOSUPI MONYENDA00000000000000000000000000000000000000000000000000000000000000000
1028226757110044676000000025428176762324708174100000021885000000000000BLIL.4001598625BMFW-0000000000BOLE DIRENYANE 00000000000000000000000000000000000000000000000000000000000000000
1028226757110044676000000025528236762393984581100000012276000000000000BLIL.4002014308BMFW-0000000000GAETHIJWE BOORI00000000000000000000000000000000000000000000000000000000000000000
1028226757110044676000000025628566762416482074100000013976000000000000BLIL.4003254213ULM5-0000000000THATAYAONE BAFO00000000000000000000000000000000000000000000000000000000000000000
1028226757110044676000000025728286762086938465100000051276000000000000BLIL.4006776362PSTA-0000000000IDAH NEO DITHUP00000000000000000000000000000000000000000000000000000000000000000
1028226757110044676000000025828306762304992721100000024125000000000000BLIL.4000092980BMFW-0000000000TUMISANG MASU  00000000000000000000000000000000000000000000000000000000000000000
1028226757110044676000000025928526762573133338100000017300000000000000BLIL.4007143379BMFW-0000000000SEABE MAKEPE   00000000000000000000000000000000000000000000000000000000000000000
1028226757110044676000000026028146762008381197100000078664000000000000BLIL.4005868454PSTA-0000000000MOSIMANEGAPE TS00000000000000000000000000000000000000000000000000000000000000000
1028226757110044676000000026128506762567117588100000018700000000000000BLIL.4005480056BMFW-0000000000MPHO ORATILE MA00000000000000000000000000000000000000000000000000000000000000000
1028226757110044676000000026228166762285026061100000021525000000000000BLIL.4005929523URA1-0000000000MESHACK NTOGWA 00000000000000000000000000000000000000000000000000000000000000000
1028226757110044676000000026328316762082212649100000040000000000000000BLIL.4006384268MFRA-0000000000SHONA RACHEL WR00000000000000000000000000000000000000000000000000000000000000000
1028226757110044676000000026428286762095545508100000063106000000000000BLIL.4006540216PSTA-0000000000ALBERTINAH TIRO00000000000000000000000000000000000000000000000000000000000000000
1028226757110044676000000026528286762235889237100000055550000000000000BLIL.4005273594ULMG-0000000000MALEBOGO BAHAKG00000000000000000000000000000000000000000000000000000000000000000
1028226757110044676000000026628456762655017632100000054512000000000000BLIL.4005514409PSTA-0000000000KHUMOETSILE ROS00000000000000000000000000000000000000000000000000000000000000000
1028226757110044676000000026728146762196191391100000018854000000000000BLIL.4004054110BMFW-0000000000TSHIAMO MAOKISA00000000000000000000000000000000000000000000000000000000000000000
1028226757110044676000000026828286762088123410100000095825000000000000BLIL.4004157021BMKS-0000000000KEFILWE OPELOKG00000000000000000000000000000000000000000000000000000000000000000
1028226757110044676000000026928186762159406795100000033900000000000000BLIL.4006891140BMFW-0000000000OPELO MAZULUGWA00000000000000000000000000000000000000000000000000000000000000000
1028226757110044676000000027028186762288377578100000022601000000000000BLIL.4004896893ULM5-0000000000TSHEPISO MONAGE00000000000000000000000000000000000000000000000000000000000000000
1028226757110044676000000027128526762513391558100000030200000000000000BLIL.4007300399BMFW-0000000000MABITSO KUKAMA 00000000000000000000000000000000000000000000000000000000000000000
1028226757110044676000000027228166762359840975100000044100000000000000BLIL.4004046135ULM3-0000000000ONALENNA GABAIT00000000000000000000000000000000000000000000000000000000000000000
1028226757110044676000000027328176762675288247100000022500000000000000BLIL.4006427545MFRA-0000000000OPELO NICHENGE 00000000000000000000000000000000000000000000000000000000000000000
1028226757110044676000000027428146762590433373100000032025000000000000BLIL.4005396477ULMG-0000000000NATURO MEDIC (P00000000000000000000000000000000000000000000000000000000000000000
1028226757110044676000000027528286762372796056100000020500000000000000BLIL.4006173605BMFW-0000000000SEFELA DUDUETSA00000000000000000000000000000000000000000000000000000000000000000
1028226757110044676000000027628286762129696558100000042181000000000000BLIL.4006027181PSTA-0000000000MALEBOGO MATSWI00000000000000000000000000000000000000000000000000000000000000000
1028226757110044676000000027728516762157921175100000022900000000000000BLIL.4006602975BMFW-0000000000SIMON KAIMBA   00000000000000000000000000000000000000000000000000000000000000000
1028226757110044676000000027828286762133283755100000035500000000000000BLIL.4004358487URA1-0000000000KELEBOGILE JANE00000000000000000000000000000000000000000000000000000000000000000
1028226757110044676000000027928286762319648062100000030855000000000000BLIL.4004210304ULM5-0000000000BOTSALANO MMOLA00000000000000000000000000000000000000000000000000000000000000000
1028226757110044676000000028028246757211155471100000030098000000000000BLIL.4004653514BMFW-0000000000MOPEDI LESOLAME00000000000000000000000000000000000000000000000000000000000000000
1028226757110044676000000028128146762719635213100000021099000000000000BLIL.4003004727BMFW-0000000000PEARL GOITSEONE00000000000000000000000000000000000000000000000000000000000000000
1028226757110044676000000028228146762690646660100000032484000000000000BLIL.4006425200PSTA-0000000000RUDOLF LEBONE P00000000000000000000000000000000000000000000000000000000000000000
1028226757110044676000000028328526762086961549100000063548000000000000BLIL.4007255091PSTA-0000000000RONA LETLHOGILE00000000000000000000000000000000000000000000000000000000000000000
1028226757110044676000000028428166762445830012100000030873000000000000BLIL.4001815823BMFW-0000000000TSHEPISO MABOTE00000000000000000000000000000000000000000000000000000000000000000
1028226757110044676000000028528456762177759176100000016590000000000000BLIL.4005089573BMFW-0000000000OSEGO CYRIL MOS00000000000000000000000000000000000000000000000000000000000000000
1028226757110044676000000028628146762305800577100000010500000000000000BLIL.4000956972URA1-0000000000KENOSI NKATSWE 00000000000000000000000000000000000000000000000000000000000000000
1028226757110044676000000028728286762367296988100000013100000000000000BLIL.4005534497BMFW-0000000000KELEBOGILE DITI00000000000000000000000000000000000000000000000000000000000000000
1028226757110044676000000028828286762086957043100000054640000000000000BLIL.4005849933PSTA-0000000000TEBOGO L KOOSIM00000000000000000000000000000000000000000000000000000000000000000
1028226757110044676000000028928306762588157943100000009702000000000000BLIL.4004432932BMFW-0000000000MATILDAH TILLY 00000000000000000000000000000000000000000000000000000000000000000
1028226757110044676000000029028286762341513910100000021800000000000000BLIL.4006406446BMFW-0000000000MOEMEDI MOSITIE00000000000000000000000000000000000000000000000000000000000000000
1028226757110044676000000029128236762556415133100000032500000000000000BLIL.4006786632MFDS-0000000000KEORILENG LETSO00000000000000000000000000000000000000000000000000000000000000000
1028226757110044676000000029228566762324467332100000039139000000000000BLIL.0000345715BMFW-0000000000MASEGO KGOMOTSO00000000000000000000000000000000000000000000000000000000000000000
1028226757110044676000000029328126762192556169100000019782000000000000BLIL.4000723777ULP1-0000000000TAPOLOSO BENJAM00000000000000000000000000000000000000000000000000000000000000000
1028226757110044676000000029428126762479387568100000027673000000000000BLIL.4004452598BMFW-0000000000LAPOLOGANG MALG00000000000000000000000000000000000000000000000000000000000000000
1028226757110044676000000029528146762463584328100000029326000000000000BLIL.4001837685BMFW-0000000000LEBOGANG MOSIAM00000000000000000000000000000000000000000000000000000000000000000
1028226757110044676000000029628196762536298872100000010000000000000000BLIL.4006029400BMFW-0000000000TLHALOGANYO MAK00000000000000000000000000000000000000000000000000000000000000000
1028226757110044676000000029728166762355768600100000020165000000000000BLIL.4000853948BMFW-0000000000KABO LEPHOJANE 00000000000000000000000000000000000000000000000000000000000000000
1028226757110044676000000029828286762375490671100000035000000000000000BLIL.4006841802MFDS-0000000000REFILWE MOREMI 00000000000000000000000000000000000000000000000000000000000000000
1028226757110044676000000029928316762768504386100000036900000000000000BLIL.4007215243BMFW-0000000000LINAH MATSHABA 00000000000000000000000000000000000000000000000000000000000000000
1028226757110044676000000030028526762148570080100000021000000000000000BLIL.4003323650URA1-0000000000ANGELINAH KHOMB00000000000000000000000000000000000000000000000000000000000000000
1028226757110044676000000030128286762169296003100000028080000000000000BLIL.4001534607BMFW-0000000000LORINAH TLHOBOL00000000000000000000000000000000000000000000000000000000000000000
1028226757110044676000000030228186762295657236100000030000000000000000BLIL.4007036762MFDS-0000000000ONKABETSE N. KE00000000000000000000000000000000000000000000000000000000000000000
1028226757110044676000000030328286762133283755100000031100000000000000BLIL.4006014245BMFW-0000000000KELEBOGILE JANE00000000000000000000000000000000000000000000000000000000000000000
1028226757110044676000000030428246762700279559100000022500000000000000BLIL.4006365462BMFW-0000000000ONNEETSE KELETS00000000000000000000000000000000000000000000000000000000000000000
1028226757110044676000000030528146762515913251100000011577000000000000BLIL.4003029553BMFW-0000000000LERANG OWCZAREK00000000000000000000000000000000000000000000000000000000000000000
1028226757110044676000000030628146762182114563100000024761000000000000BLIL.4000419669BMFW-0000000000TEBO BOTSALANO 00000000000000000000000000000000000000000000000000000000000000000
1028226757110044676000000030728526762111440955100000046700000000000000BLIL.04004946565LORE0000000000PAULINE AKANYAN00000000000000000000000000000000000000000000000000000000000000000
1028226757110044676000000030828166762742422190100000016600000000000000BLIL.4007063991BMFW-0000000000BHEKISISA MACKS00000000000000000000000000000000000000000000000000000000000000000
1028226757110044676000000030928286762188402194100000110000000000000000BLIL.4005829343ULMG-0000000000LILLIAN KEREKAN00000000000000000000000000000000000000000000000000000000000000000
1028226757110044676000000031028146762305950786100000014900000000000000BLIL.4005760111BMFW-0000000000PAKO RAPELANG R00000000000000000000000000000000000000000000000000000000000000000
1028226757110044676000000031128286762276565896100000018400000000000000BLIL.4006692037BMFW-0000000000DENNIS THABO CH00000000000000000000000000000000000000000000000000000000000000000
1028226757110044676000000031228146762411148861100000018400000000000000BLIL.4006905563BMFW-0000000000ONNEILE CHRISTO00000000000000000000000000000000000000000000000000000000000000000
1028226757110044676000000031328286762314634719100000022078000000000000BLIL.4000789894BMFW-0000000000KESAOBAKA BABED00000000000000000000000000000000000000000000000000000000000000000
1028226757110044676000000031428236762743753106100000013300000000000000BLIL.4007012461BMFW-0000000000PAULINE MONNAAM00000000000000000000000000000000000000000000000000000000000000000
1028226757110044676000000031528146762276438176100000014933000000000000BLIL.4001023250BMFW-0000000000KGABINYANA MASI00000000000000000000000000000000000000000000000000000000000000000
1028226757110044676000000031628186762532964229100000018300000000000000BLIL.4006819186BMFW-0000000000TSHENYELETSO LE00000000000000000000000000000000000000000000000000000000000000000
1028226757110044676000000031728566762258761157100000025000000000000000BLIL.4006880751MFRA-0000000000KEGOMODITSWE GA00000000000000000000000000000000000000000000000000000000000000000
1028226757110044676000000031828286762188429528100000029750000000000000BLIL.4003088440BMFW-0000000000LESEGO PEARL MA00000000000000000000000000000000000000000000000000000000000000000
1028226757110044676000000031928146762171624789100000012705000000000000BLIL.4002360258URA1-0000000000LESEGO SIELE   00000000000000000000000000000000000000000000000000000000000000000
1028226757110044676000000032028146762594247324100000021525000000000000BLIL.4005903767URA1-0000000000KEABETSWE LETSW00000000000000000000000000000000000000000000000000000000000000000
1028226757110044676000000032128286762463353806100000022300000000000000BLIL.4006698091BMFW-0000000000RULANG GABOIKAN00000000000000000000000000000000000000000000000000000000000000000
1028226757110044676000000032228146762658824422100000016905000000000000BLIL.4005388735BMFW-0000000000JOSEPH CHIMBAND00000000000000000000000000000000000000000000000000000000000000000
1028226757110044676000000032328456762199426307100000022500000000000000BLIL.4006695912MFRA-0000000000NEO NICOLA MODI00000000000000000000000000000000000000000000000000000000000000000
1028226757110044676000000032428236760720006126100000278912000000000000BLIL.4002580949URA1-0000000000DAVID MTHETHELE00000000000000000000000000000000000000000000000000000000000000000
1028226757110044676000000032528516762289545611100000023700000000000000BLIL.4005827066BMFW-0000000000IKAGENG  FACTOR00000000000000000000000000000000000000000000000000000000000000000
1028226757110044676000000032628186762028580612100000050500000000000000BLIL.4005328436ULM5-0000000000AGNES OOMANYENG00000000000000000000000000000000000000000000000000000000000000000
1028226757110044676000000032728146757371122055100000031700000000000000BLIL.4005757615BMFW-0000000000LINDAH MOGOPODI00000000000000000000000000000000000000000000000000000000000000000
1028226757110044676000000032828126762498966319100000050700000000000000BLIL.4006346072BMFW-0000000000KEABETSWE MPIPI00000000000000000000000000000000000000000000000000000000000000000
1028226757110044676000000032928146762470718853100000021300000000000000BLIL.4006981806BMFW-0000000000OMPUSITSE JAPHE00000000000000000000000000000000000000000000000000000000000000000
1028226757110044676000000033028546762184849671100000113000000000000000BLIL.04001534526LORE0000000000VINGA MPHATHI  00000000000000000000000000000000000000000000000000000000000000000
1028226757110044676000000033128236762185801828100000022601000000000000BLIL.4004797635ULP1-0000000000JANET MAKWATE  00000000000000000000000000000000000000000000000000000000000000000
1028226757110044676000000033228896762684928991100000010000000000000000BLIL.4006780254BMFW-0000000000RELESENG JUSTIC00000000000000000000000000000000000000000000000000000000000000000
1028226757110044676000000033328306762478928553100000031835000000000000BLIL.4002920907BMFW-0000000000BABATSHI MUNYAD00000000000000000000000000000000000000000000000000000000000000000
1028226757110044676000000033428186762187550564100000058012000000000000BLIL.4005847185PSWL-0000000000LESOLE ALBERT  00000000000000000000000000000000000000000000000000000000000000000
1028226757110044676000000033528246762700279559100000020500000000000000BLIL.4006365569ULM5-0000000000ONNEETSE KELETS00000000000000000000000000000000000000000000000000000000000000000
1028226757110044676000000033628146762192007443100000030000000000000000BLIL.4003549745URA1-0000000000MOSES JENGWA   00000000000000000000000000000000000000000000000000000000000000000
1028226757110044676000000033728506762316533323100000030100000000000000BLIL.04005193807MPFP0000000000GASEBONNO GAOTL00000000000000000000000000000000000000000000000000000000000000000
1028226757110044676000000033828306762179144268100000047353000000000000BLIL.4004456877BMKS-0000000000ATLARELANG SHEL00000000000000000000000000000000000000000000000000000000000000000
1028226757110044676000000033928196762117073560100000020000000000000000BLIL.4006609155MFDS-0000000000MOEMEDI NGOPE  00000000000000000000000000000000000000000000000000000000000000000
1028226757110044676000000034028236762216688054100000022500000000000000BLIL.4007049323MFDS-0000000000THAGHI DITLHAKO00000000000000000000000000000000000000000000000000000000000000000
1028226757110044676000000034128286762126674599100000043151000000000000BLIL.4002152025URA1-0000000000THATO SIMON    00000000000000000000000000000000000000000000000000000000000000000
1028226757110044676000000034228146762271142780100000047251000000000000BLIL.4003854956ULMG-0000000000ELTON KEATLHOLE00000000000000000000000000000000000000000000000000000000000000000
1028226757110044676000000034328526762336332028100000044656000000000000BLIL.4001737502URA1-0000000000ONTIRETSE MOLEF00000000000000000000000000000000000000000000000000000000000000000
1028226757110044676000000034428236762703772097100000022500000000000000BLIL.4007040183BMFW-0000000000KENOSI TIROYAMO00000000000000000000000000000000000000000000000000000000000000000
1028226757110044676000000034528316762247217004100005500000000000000000BLIL.4005847402MFDS-0000000000JAGO INVESTMENT00000000000000000000000000000000000000000000000000000000000000000
1028226757110044676000000034628546762350991834100000046800000000000000BLIL.4006205454BMFW-0000000000SHEPHERD DICK  00000000000000000000000000000000000000000000000000000000000000000
1028226757110044676000000034728536762382827867100000025747000000000000BLIL.4004024991BMFW-0000000000OTSHEGEDITSE OT00000000000000000000000000000000000000000000000000000000000000000
1028226757110044676000000034828526762284294247100000080200000000000000BLIL.04003885294LORE0000000000ALICE A WELLIO 00000000000000000000000000000000000000000000000000000000000000000
1028226757110044676000000034928286762488428064100000064768000000000000BLIL.4006394261PSTA-0000000000REFILWE GORATA 00000000000000000000000000000000000000000000000000000000000000000
1028226757110044676000000035028236762345962999100000020500000000000000BLIL.4006095300ULP1-0000000000ABUSENG MOSARA 00000000000000000000000000000000000000000000000000000000000000000
1028226757110044676000000035128566762611030800100000035833000000000000BLIL.4004706111BMFW-0000000000BATHUSENG MOTSH00000000000000000000000000000000000000000000000000000000000000000
1028226757110044676000000035228546762342976125100000100000000000000000BLIL.4004306503ULMG-0000000000NOBLE T KATSE  00000000000000000000000000000000000000000000000000000000000000000
1028226757110044676000000035328556762782371696100000021300000000000000BLIL.4007240878BMFW-0000000000KAGISANO BOFENT00000000000000000000000000000000000000000000000000000000000000000
1028226757110044676000000035428146762389447767100000020500000000000000BLIL.4005044458ULP1-0000000000TEBOGO MMAPHAGE00000000000000000000000000000000000000000000000000000000000000000
1028226757110044676000000035528236762070801595100000038258000000000000BLIL.4004939219BMFW-0000000000KEBABONYE SENAB00000000000000000000000000000000000000000000000000000000000000000
1028226757110044676000000035628566762327839059100000020500000000000000BLIL.4005127054ULP1-0000000000IKANYENG LOXION00000000000000000000000000000000000000000000000000000000000000000
1028226757110044676000000035728146762685681465100000022854000000000000BLIL.4005735316PSTA-0000000000RONALD THABANG 00000000000000000000000000000000000000000000000000000000000000000
1028226757110044676000000035828236762237324827100000028114000000000000BLIL.4004818817ULP1-0000000000ONKUTLWETSE L M00000000000000000000000000000000000000000000000000000000000000000
1028226757110044676000000035928236762470582133100000010033000000000000BLIL.4004885496BMFW-0000000000OBAKENG MASAKE 00000000000000000000000000000000000000000000000000000000000000000
1028226757110044676000000036028236762246429288100000011025000000000000BLIL.4005440339BMFW-0000000000MAITUMELO MOTSW00000000000000000000000000000000000000000000000000000000000000000
1028226757110044676000000036128526762283587396100000030893000000000000BLIL.4000948769BMKS-0000000000MATSHIDISO KATL00000000000000000000000000000000000000000000000000000000000000000
1028226757110044676000000036228536762312479688100000066617000000000000BLIL.4001487129ULP1-0000000000REGINAH P MALEB00000000000000000000000000000000000000000000000000000000000000000
1028226757110044676000000036328826762453111371100000026100000000000000BLIL.4006363703BMFW-0000000000THABANG GOUWE  00000000000000000000000000000000000000000000000000000000000000000
1028226757110044676000000036428286762385721967100000068630000000000000BLIL.4006711592PSWL-0000000000TUMELO KASALE  00000000000000000000000000000000000000000000000000000000000000000
1028226757110044676000000036528146762490575449100000027100000000000000BLIL.4006895827BMFW-0000000000TUELO TSHEKOENG00000000000000000000000000000000000000000000000000000000000000000
1028226757110044676000000036628566762621098666100000062500000000000000BLIL.4006701450MFRA-0000000000TEBOGO SAME DIT00000000000000000000000000000000000000000000000000000000000000000
1028226757110044676000000036728236762627553242100000013545000000000000BLIL.4005873253BMFW-0000000000BAINEI BRENDA H00000000000000000000000000000000000000000000000000000000000000000
1028226757110044676000000036828236762588888481100000025200000000000000BLIL.4006552075BMFW-0000000000DITIHO RADINONY00000000000000000000000000000000000000000000000000000000000000000
1028226757110044676000000036928526762406317489100000067216000000000000BLIL.4002679992URA1-0000000000BAME HAZEL MORE00000000000000000000000000000000000000000000000000000000000000000
1028226757110044676000000037028286762253692406100000030500000000000000BLIL.4005838421URA1-0000000000CONSTANCE WAME 00000000000000000000000000000000000000000000000000000000000000000
1028226757110044676000000037128146762326946219100000020000000000000000BLIL.4005332831URA1-0000000000REFILWE LINDIWE00000000000000000000000000000000000000000000000000000000000000000
1028226757110044676000000037228186762323392316100000035500000000000000BLIL.4005396817BMFW-0000000000KEEME MANGINA  00000000000000000000000000000000000000000000000000000000000000000
1028226757110044676000000037328306762570927578100000032025000000000000BLIL.4006213455ULP1-0000000000RONNIE OMPHILE 00000000000000000000000000000000000000000000000000000000000000000
1028226757110044676000000037428146762487960588100000021900000000000000BLIL.4007312019BMFW-0000000000JUDITH MANEWE  00000000000000000000000000000000000000000000000000000000000000000
1028226757110044676000000037528126762737698805100000023906000000000000BLIL.4006386985PSTA-0000000000NELTON GOEPAMAN00000000000000000000000000000000000000000000000000000000000000000
1028226757110044676000000037628146762228329208100000019100000000000000BLIL.4006110861BMFW-0000000000RAPULA KWAPA   00000000000000000000000000000000000000000000000000000000000000000
1028226757110044676000000037728196762436809555100000020000000000000000BLIL.4005922440ULP1-0000000000THAPELO SHELLY 00000000000000000000000000000000000000000000000000000000000000000
1028226757110044676000000037828166762144228170100000010694000000000000BLIL.4004544662BMFW-0000000000JOSEPHINE NOKAN00000000000000000000000000000000000000000000000000000000000000000
1028226757110044676000000037928556762235808477100000021000000000000000BLIL.4005579986ULP1-0000000000LEMPATILE NABA 00000000000000000000000000000000000000000000000000000000000000000
1028226757110044676000000038028176762380166944100000030975000000000000BLIL.4005557441BMFW-0000000000BAITSHEPI MOSWE00000000000000000000000000000000000000000000000000000000000000000
1028226757110044676000000038128526762172972559100000085922000000000000BLIL.4005533637PSTA-0000000000KELETLWAELE M M00000000000000000000000000000000000000000000000000000000000000000
1028226757110044676000000038228556762693606695100000013340000000000000BLIL.4004101046BMFW-0000000000KAGELELO ZULU  00000000000000000000000000000000000000000000000000000000000000000
1028226757110044676000000038328606762572052696100000011600000000000000BLIL.4006862040BMFW-0000000000RAYMOND MOGALE 00000000000000000000000000000000000000000000000000000000000000000
1028226757110044676000000038428516762343556059100000015500000000000000BLIL.4006789999BMFW-0000000000EKAKANYENG MOUT00000000000000000000000000000000000000000000000000000000000000000
1028226757110044676000000038528176762292844208100000061331000000000000BLIL.4004098784BMFW-0000000000MASEGO MOLEFHE 00000000000000000000000000000000000000000000000000000000000000000
1028226757110044676000000038628456762516723766100000042500000000000000BLIL.4005948094MFDS-0000000000PAKO MPOLOKENG 00000000000000000000000000000000000000000000000000000000000000000
1028226757110044676000000038728556762358971937100000010000000000000000BLIL.4001892049URA1-0000000000TIRELO OTHUSITS00000000000000000000000000000000000000000000000000000000000000000
1028226757110044676000000038828246762355096415100000049610000000000000BLIL.4004442139ULM3-0000000000NTOMBIZODWA VAN00000000000000000000000000000000000000000000000000000000000000000
1028226757110044676000000038928146762298175847100000268772000000000000BLIL.4005944066PSWL-0000000000VICTOR RAMALEPA00000000000000000000000000000000000000000000000000000000000000000
1028226757110044676000000039028286762086938051100000043596000000000000BLIL.4006924725PSTA-0000000000NTSHEKANG KEDUM00000000000000000000000000000000000000000000000000000000000000000
1028226757110044676000000039128166762472663494100000021300000000000000BLIL.4006946414BMFW-0000000000GABOPHIMOGE MOK00000000000000000000000000000000000000000000000000000000000000000
1028226757110044676000000039228186762320615464100000052500000000000000BLIL.4007205680MFDS-0000000000ARIA  MOSINYI  00000000000000000000000000000000000000000000000000000000000000000
1028226757110044676000000039328286762324150622100000043000000000000000BLIL.4006098853BMFW-0000000000THATO SEGI TATL00000000000000000000000000000000000000000000000000000000000000000
1028226757110044676000000039428236762328677359100000022500000000000000BLIL.4006892104MFDS-0000000000JOSEPH SKY     00000000000000000000000000000000000000000000000000000000000000000
1028226757110044676000000039528316762300743087100000012155000000000000BLIL.4002796324ULM5-0000000000SALOME MOLEELE 00000000000000000000000000000000000000000000000000000000000000000
1028226757110044676000000039628166762737143925100000022600000000000000BLIL.4006910346BMFW-0000000000MALEBOGO JANET 00000000000000000000000000000000000000000000000000000000000000000
1028226757110044676000000039728516762735208672100000014000000000000000BLIL.4006887842BMFW-0000000000KERWELE ARETOKO00000000000000000000000000000000000000000000000000000000000000000
1028226757110044676000000039828146762434518231100000033017000000000000BLIL.4001330772URA1-0000000000ONALENNA B. SIR00000000000000000000000000000000000000000000000000000000000000000
1028226757110044676000000039928286762258030362100000030996000000000000BLIL.4002198358URA1-0000000000ELIAS BALESAMAN00000000000000000000000000000000000000000000000000000000000000000
1028226757110044676000000040028286762352756509100000054700000000000000BLIL.4002530253BMFW-0000000000THUSO RICHARD K00000000000000000000000000000000000000000000000000000000000000000
1028226757110044676000000040128286762471210452100000031604000000000000BLIL.4003401858BMFW-0000000000OTHUSITSE THIPE00000000000000000000000000000000000000000000000000000000000000000
1028226757110044676000000040228516762333158881100000022136000000000000BLIL.0000421296BMFW-0000000000TSHEPHO DIKINYA00000000000000000000000000000000000000000000000000000000000000000
1028226757110044676000000040328236762297622857100000024800000000000000BLIL.4005751774BMFW-0000000000TSHIAMELO HABAN00000000000000000000000000000000000000000000000000000000000000000
1028226757110044676000000040428186762126917270100000023153000000000000BLIL.4002651061URA1-0000000000KEEDITSE TOTENG00000000000000000000000000000000000000000000000000000000000000000
1028226757110044676000000040528146762471636450100000021996000000000000BLIL.4003247991BMFW-0000000000VINCENT BIKIE M00000000000000000000000000000000000000000000000000000000000000000
1028226757110044676000000040628286762150573147100000026628000000000000BLIL.4004648579BMFW-0000000000DINEO BONTSIBOK00000000000000000000000000000000000000000000000000000000000000000
1028226757110044676000000040728546762299072365100000121605000000000000BLIL.4004783599ULM5-0000000000WENDY LOU-ANNE 00000000000000000000000000000000000000000000000000000000000000000
1028226757110044676000000040828236762259938854100000015558000000000000BLIL.4002003406BMFW-0000000000MPHO AMOGELANG 00000000000000000000000000000000000000000000000000000000000000000
1028226757110044676000000040928186762015250088100000028775000000000000BLIL.4004532683BMFW-0000000000KENNETH LESASO 00000000000000000000000000000000000000000000000000000000000000000
1028226757110044676000000041028286762266241993100000058100000000000000BLIL.4005440193BMFW-0000000000KATLEGO RAMPUTS00000000000000000000000000000000000000000000000000000000000000000
1028226757110044676000000041128826762666304135100000022100000000000000BLIL.4006599477BMFW-0000000000ONALENNA LAO   00000000000000000000000000000000000000000000000000000000000000000
1028226757110044676000000041228186762493297264100000011500000000000000BLIL.4005202783BMFW-0000000000NEO TSHEKO     00000000000000000000000000000000000000000000000000000000000000000
1028226757110044676000000041328186762325505066100000021441000000000000BLIL.4000875695BMFW-0000000000GUGULETHU BECHW00000000000000000000000000000000000000000000000000000000000000000
1028226757110044676000000041428146762473690719100000116341000000000000BLIL.4002895540URAG-0000000000KAREN SANCHEZ G00000000000000000000000000000000000000000000000000000000000000000
1028226757110044676000000041528146760736058038100000013340000000000000BLIL.4004567072BMFW-0000000000PINKIE PATRICIA00000000000000000000000000000000000000000000000000000000000000000
1028226757110044676000000041628566762581603357100000020500000000000000BLIL.4004836332ULM5-0000000000KEANOLE PULE   00000000000000000000000000000000000000000000000000000000000000000
1028226757110044676000000041728286762133454124100000032700000000000000BLIL.4006151225BMFW-0000000000POIFO MMOLOTSI 00000000000000000000000000000000000000000000000000000000000000000
1028226757110044676000000041828186762325353100100000030500000000000000BLIL.4005027183ULM5-0000000000GAOTWAELWE MMOL00000000000000000000000000000000000000000000000000000000000000000
1028226757110044676000000041928606762542607588100000050000000000000000BLIL.4006095342ULMG-0000000000KAELO MOKOMO   00000000000000000000000000000000000000000000000000000000000000000
1028226757110044676000000042028286762276554203100000025900000000000000BLIL.4006892984BMFW-0000000000KESEGOFETSE MOY00000000000000000000000000000000000000000000000000000000000000000
1028226757110044676000000042128286762309000610100000020631000000000000BLIL.4002671025URA1-0000000000MUSA NOMSA NTEM00000000000000000000000000000000000000000000000000000000000000000
1028226757110044676000000042228526762766063805100000022500000000000000BLIL.4007250457MFDS-0000000000DIMAKATSO IREEN00000000000000000000000000000000000000000000000000000000000000000
1028226757110044676000000042328306762423649641100000051862000000000000BLIL.4003138073BMFW-0000000000THATO MOENGELE 00000000000000000000000000000000000000000000000000000000000000000
1028226757110044676000000042428286762315035651100000035006000000000000BLIL.4002034223BMFW-0000000000JENAMISO MBANGI00000000000000000000000000000000000000000000000000000000000000000
1028226757110044676000000042528186762159406795100000022500000000000000BLIL.4006894287MFDS-0000000000GILLIA MAZULUGW00000000000000000000000000000000000000000000000000000000000000000
1028226757110044676000000042628286762216824278100000015283000000000000BLIL.4003017574BMFW-0000000000UNENI MOGOMA   00000000000000000000000000000000000000000000000000000000000000000
1028226757110044676000000042728286762150571191100000025580000000000000BLIL.4004406571BMFW-0000000000LESEDI TSHEKISO00000000000000000000000000000000000000000000000000000000000000000
1028226757110044676000000042828556762448925084100000015801000000000000BLIL.4002140062BMFW-0000000000ABEDIUS OTUKILE00000000000000000000000000000000000000000000000000000000000000000
1028226757110044676000000042928556762484668458100000035490000000000000BLIL.4005275279BMFW-0000000000NDIYE BOTANA   00000000000000000000000000000000000000000000000000000000000000000
1028226757110044676000000043028286762057874565100000059926000000000000BLIL.4001028137URA1-0000000000LESEGO DITSILE 00000000000000000000000000000000000000000000000000000000000000000
1028226757110044676000000043128286762150244532100000049122000000000000BLIL.4000638786URA1-0000000000PRECIOUS TSHEKO00000000000000000000000000000000000000000000000000000000000000000
1028226757110044676000000043228526762716204699100000031603000000000000BLIL.4001573598BMFW-0000000000SHINE KATLHOLO 00000000000000000000000000000000000000000000000000000000000000000
1028226757110044676000000043328146762239972294100000022712000000000000BLIL.4004337689BMFW-0000000000LESEGO LEKGOWE 00000000000000000000000000000000000000000000000000000000000000000
1028226757110044676000000043428286762086945858100000050140000000000000BLIL.4004200961BMKS-0000000000GREGORY KABELO 00000000000000000000000000000000000000000000000000000000000000000
1028226757110044676000000043528186762126917543100000025357000000000000BLIL.4004536988BMFW-0000000000ONTIRETSE BOGAN00000000000000000000000000000000000000000000000000000000000000000
1028226757110044676000000043628286762235882372100000030500000000000000BLIL.4003924543ULMG-0000000000CHEDU GAABADZO 00000000000000000000000000000000000000000000000000000000000000000
1028226757110044676000000043728186762611859151100000026775000000000000BLIL.4005747476ULM3-0000000000MBIGANYI MACHAB00000000000000000000000000000000000000000000000000000000000000000
1028226757110044676000000043828456762183215766100000040100000000000000BLIL.4006220052BMFW-0000000000MODISAOTSILE JO00000000000000000000000000000000000000000000000000000000000000000
1028226757110044676000000043928456762326199488100000037244000000000000BLIL.0000571308BMKS-0000000000THABISO BOTLHOL00000000000000000000000000000000000000000000000000000000000000000
1028226757110044676000000044028286762113791752100000043923000000000000BLIL.4002111378URA1-0000000000NAOMI MONTWEDI 00000000000000000000000000000000000000000000000000000000000000000
1028226757110044676000000044128186762602196116100000038824000000000000BLIL.4006139170PSTA-0000000000KGOTSO MILES OL00000000000000000000000000000000000000000000000000000000000000000
1028226757110044676000000044228126762533757657100000014774000000000000BLIL.4004795390BMFW-0000000000LETSWELETSE THA00000000000000000000000000000000000000000000000000000000000000000
1028226757110044676000000044328556762448925084100000030015000000000000BLIL.4002143303URA1-0000000000ABEDIUS OTUKILE00000000000000000000000000000000000000000000000000000000000000000
1028226757110044676000000044428546762298175847100000027500000000000000BLIL.4005738097URA1-0000000000VICTOR RAMALEPA00000000000000000000000000000000000000000000000000000000000000000
1028226757110044676000000044528146762590433373100000032025000000000000BLIL.4005396257ULMG-0000000000NATURO MEDIC (P00000000000000000000000000000000000000000000000000000000000000000
1028226757110044676000000044628246762436034855100000017900000000000000BLIL.4006829781BMFW-0000000000KABELO KOIFO   00000000000000000000000000000000000000000000000000000000000000000
1028226757110044676000000044728146762373598493100000182500000000000000BLIL.4007205622MFRA-0000000000NGODYA CHIMBWET00000000000000000000000000000000000000000000000000000000000000000
1028226757110044676000000044828166762112047479100000053304000000000000BLIL.4001741101BMKS-0000000000THENGIWE SELEKA00000000000000000000000000000000000000000000000000000000000000000
1028226757110044676000000044928146762269494218100000040609000000000000BLIL.0000488092BMFW-0000000000SEGAKWENG EUNIC00000000000000000000000000000000000000000000000000000000000000000
1028226757110044676000000045028236762141145476100000033941000000000000BLIL.4002798261ULM3-0000000000OTLHAGILE BAIT 00000000000000000000000000000000000000000000000000000000000000000
1028226757110044676000000045128286762506052662100000028114000000000000BLIL.4004501264BMFW-0000000000OTSILE MMALEBOT00000000000000000000000000000000000000000000000000000000000000000
1028226757110044676000000045228236762328677359100000024700000000000000BLIL.4006889967BMFW-0000000000JOSEPH SKY     00000000000000000000000000000000000000000000000000000000000000000
1028226757110044676000000045328456762474394542100000015512000000000000BLIL.4002679023BMFW-0000000000MAGADI ANGELLA 00000000000000000000000000000000000000000000000000000000000000000
1028226757110044676000000045428146762770394949100000026000000000000000BLIL.4007156964BMFW-0000000000GOSALAMANG BAIK00000000000000000000000000000000000000000000000000000000000000000
1028226757110044676000000045528286762543055934100000022500000000000000BLIL.4005173241BMFW-0000000000MPHOYAME HILDAH00000000000000000000000000000000000000000000000000000000000000000
1028226757110044676000000045628186762380091795100000026740000000000000BLIL.4001732227BMFW-0000000000MOTSWEDI SENWED00000000000000000000000000000000000000000000000000000000000000000
1028226757110044676000000045728176762469847126100000010605000000000000BLIL.4005245571BMFW-0000000000KOKETSO MOREKI 00000000000000000000000000000000000000000000000000000000000000000
1028226757110044676000000045828516762419750486100000182326000000000000BLIL.4001686711ULM3-0000000000BARBARA PENELOP00000000000000000000000000000000000000000000000000000000000000000
1028226757110044676000000045928146762189263561100000286198000000000000BLIL.4002020983BMKS-0000000000PETER E KESITIL00000000000000000000000000000000000000000000000000000000000000000
1028226757110044676000000046028146762131947452100000021700000000000000BLIL.4007311110BMFW-0000000000TUDUETSO GLADYS00000000000000000000000000000000000000000000000000000000000000000
1028226757110044676000000046128166762256269418100000084500000000000000BLIL.4005731370BMFW-0000000000SYLVIA KEBELAEL00000000000000000000000000000000000000000000000000000000000000000
1028226757110044676000000046228546762131408123100000056280000000000000BLIL.4005023838BMFW-0000000000TUELO BALEBEDI 00000000000000000000000000000000000000000000000000000000000000000
1028226757110044676000000046328286762086990027100000024251000000000000BLIL.4000284030BMFW-0000000000CHANANA SAME NT00000000000000000000000000000000000000000000000000000000000000000
1028226757110044676000000046428566762429119044100000025500000000000000BLIL.4006815441BMFW-0000000000MAITOKO SELOTLE00000000000000000000000000000000000000000000000000000000000000000
1028226757110044676000000046528166762754048762100000030000000000000000BLIL.4006699990MFRA-0000000000BAKANA KARABO  00000000000000000000000000000000000000000000000000000000000000000
1028226757110044676000000046628166762367530724100000050000000000000000BLIL.4005066731URA1-0000000000CALFORNIA MOLEF00000000000000000000000000000000000000000000000000000000000000000
1028226757110044676000000046728236762398112872100000045675000000000000BLIL.4005578566BMFW-0000000000STANLEY DUBE   00000000000000000000000000000000000000000000000000000000000000000
1028226757110044676000000046828146762388437660100000045887000000000000BLIL.4005119710PSTA-0000000000MOSES TSALAILE 00000000000000000000000000000000000000000000000000000000000000000
1028226757110044676000000046928246762158922099100000050600000000000000BLIL.4007077998BMFW-0000000000ISHMAEL NGALAPI00000000000000000000000000000000000000000000000000000000000000000
1028226757110044676000000047028146762086675687100000031836000000000000BLIL.4003665105BMFW-0000000000MOJABOSWA MODIS00000000000000000000000000000000000000000000000000000000000000000
1028226757110044676000000047128126762165500888100000009847000000000000BLIL.4001910922BMFW-0000000000NALEDI EVAH MOS00000000000000000000000000000000000000000000000000000000000000000
1028226757110044676000000047228516762438513229100000016300000000000000BLIL.4007052780BMFW-0000000000DIPOTSO JIMANE 00000000000000000000000000000000000000000000000000000000000000000
1028226757110044676000000047328126762417029255100000032297000000000000BLIL.0000473015BMFW-0000000000GABAITSE  SELEB00000000000000000000000000000000000000000000000000000000000000000
1028226757110044676000000047428526762382542481100000021525000000000000BLIL.4005349496ULP1-0000000000TEBOGO KELEBOGI00000000000000000000000000000000000000000000000000000000000000000
1028226757110044676000000047528176761739000018100000044000000000000000BLIL.4005586208MFDS-0000000000AGNES MMAPULA P00000000000000000000000000000000000000000000000000000000000000000
1028226757110044676000000047628196762409805887100000020490000000000000BLIL.4003397574BMFW-0000000000ONNEILE OTLOGET00000000000000000000000000000000000000000000000000000000000000000
1028226757110044676000000047728286762324150945100000034535000000000000BLIL.4005713847PSTA-0000000000KATLEGO SAMAFIK00000000000000000000000000000000000000000000000000000000000000000
1028226757110044676000000047828546762636613970100000069432000000000000BLIL.4000638744BMFW-0000000000ROCKIE GAGOANGW00000000000000000000000000000000000000000000000000000000000000000
1028226757110044676000000047928186762077353193100000029100000000000000BLIL.4006118217BMFW-0000000000ONNEETSE SHILE 00000000000000000000000000000000000000000000000000000000000000000
1028226757110044676000000048028316762619322572100000031881000000000000BLIL.4005735853PSTA-0000000000THATO MAGONO   00000000000000000000000000000000000000000000000000000000000000000
1028226757110044676000000048128186762483048940100000030839000000000000BLIL.4006923541PSTA-0000000000BRIDGET ANANIA 00000000000000000000000000000000000000000000000000000000000000000
1028226757110044676000000048228286762475033694100000049665000000000000BLIL.4004995718BMFW-0000000000ORATILE PHIRI  00000000000000000000000000000000000000000000000000000000000000000
1028226757110044676000000048328166762646472241100000015300000000000000BLIL.4005163549BMFW-0000000000TSHEGOFATSO MAT00000000000000000000000000000000000000000000000000000000000000000
1028226757110044676000000048428316762420021173100000040000000000000000BLIL.4007117390MFDS-0000000000GODIRELAMANG MO00000000000000000000000000000000000000000000000000000000000000000
1028226757110044676000000048528286762629285611100000051036000000000000BLIL.4005730691PSTA-0000000000MALEBOGO SELEMO00000000000000000000000000000000000000000000000000000000000000000
1028226757110044676000000048628456762215391179100000036905000000000000BLIL.4004399493ULP1-0000000000KEITUMETSE MOSI00000000000000000000000000000000000000000000000000000000000000000
1028226757110044676000000048728286762086988379100000033626000000000000BLIL.4004520599URA1-0000000000MOATHODI MONNAW00000000000000000000000000000000000000000000000000000000000000000
1028226757110044676000000048828176762645705114100000016500000000000000BLIL.4006500476BMFW-0000000000THATAYAONE OAGE00000000000000000000000000000000000000000000000000000000000000000
1028226757110044676000000048928186762695344847100000015300000000000000BLIL.4006034584BMFW-0000000000ODUETSE KGALALE00000000000000000000000000000000000000000000000000000000000000000
1028226757110044676000000049028286762088817386100000066500000000000000BLIL.4006650669BMFW-0000000000TSHEPO STANLEY 00000000000000000000000000000000000000000000000000000000000000000
1028226757110044676000000049128456762199426307100000022500000000000000BLIL.4006696219MFDS-0000000000NEO NICOLA MODI00000000000000000000000000000000000000000000000000000000000000000
1028226757110044676000000049228456762347919633100000014936000000000000BLIL.4002958352BMFW-0000000000PHEKO ISSAC    00000000000000000000000000000000000000000000000000000000000000000
1028226757110044676000000049328306762478101109100000018500000000000000BLIL.4006678304BMFW-0000000000BAITSHEPI LORRI00000000000000000000000000000000000000000000000000000000000000000
1028226757110044676000000049428306762239380281100000025000000000000000BLIL.4006677463MFDS-0000000000GOTSHEGWANG B M00000000000000000000000000000000000000000000000000000000000000000
1028226757110044676000000049528186762060559013100000109808000000000000BLIL.4002260905ULMG-0000000000NTIBINYANE MBAK00000000000000000000000000000000000000000000000000000000000000000
1028226757110044676000000049628166762398590391100000022921000000000000BLIL.4002888066BMFW-0000000000MOTHUSI MATHEWS00000000000000000000000000000000000000000000000000000000000000000
1028226757110044676000000049728236762488608012100000020618000000000000BLIL.4005109547BMFW-0000000000TSHEPHO TOMBO  00000000000000000000000000000000000000000000000000000000000000000
1028226757110044676000000049828236762195061339100000021525000000000000BLIL.4005109466ULP1-0000000000ESTHER SAOKWA  00000000000000000000000000000000000000000000000000000000000000000
1028226757110044676000000049928286762235887413100000032246000000000000BLIL.4002463957BMFW-0000000000KUTLO FANE     00000000000000000000000000000000000000000000000000000000000000000
1028226757110044676000000050028316762033359218100000017596000000000000BLIL.4003108634BMFW-0000000000OPELO MOKOLOKOT00000000000000000000000000000000000000000000000000000000000000000
1028226757110044676000000050128146762439168370100000042937000000000000BLIL.4004987042PSTA-0000000000MOMPOLOKI PULE 00000000000000000000000000000000000000000000000000000000000000000
1028226757110044676000000050228556762385892685100000025500000000000000BLIL.4005527044URA1-0000000000NTHUSANG KELETS00000000000000000000000000000000000000000000000000000000000000000
1028226757110044676000000050328166762338143663100000022270000000000000BLIL.4005006880BMFW-0000000000THATO ANTHONY M00000000000000000000000000000000000000000000000000000000000000000
1028226757110044676000000050428236762065837109100000022601000000000000BLIL.4004797758ULP1-0000000000GALETHOGE LATHA00000000000000000000000000000000000000000000000000000000000000000
1028226757110044676000000050528186762080089694100000032025000000000000BLIL.4005158423URA1-0000000000GAONTEBATSE MOK00000000000000000000000000000000000000000000000000000000000000000
1028226757110044676000000050628236762193441541100000032418000000000000BLIL.4002823107BMFW-0000000000OTIMILE WAZIME 00000000000000000000000000000000000000000000000000000000000000000
1028226757110044676000000050728286762261743671100000048305000000000000BLIL.4005930409PSTA-0000000000OARABILE CALVIN00000000000000000000000000000000000000000000000000000000000000000
1028226757110044676000000050828286762330225914100000030000000000000000BLIL.4007235859MFDS-0000000000LORATO CHARITY 00000000000000000000000000000000000000000000000000000000000000000
1028226757110044676000000050928166762754048762100000030000000000000000BLIL.4006699851MFDS-0000000000BAKANA KARABO  00000000000000000000000000000000000000000000000000000000000000000
1028226757110044676000000051028236762334783679100000022680000000000000BLIL.4006108426BMFW-0000000000SELOKA NCHINANO00000000000000000000000000000000000000000000000000000000000000000
1028226757110044676000000051128526762533739647100000011025000000000000BLIL.4004063133ULP1-0000000000MOMPOLOKI GAOTL00000000000000000000000000000000000000000000000000000000000000000
1028226757110044676000000051228236762259364364100000107434000000000000BLIL.4003957370BMKS-0000000000LESEGO SENYANA 00000000000000000000000000000000000000000000000000000000000000000
1028226757110044676000000051328146762249175771100000025000000000000000BLIL.4006778102MFRA-0000000000BUSHI MALOPE   00000000000000000000000000000000000000000000000000000000000000000
1028226757110044676000000051428286762327019528100000026904000000000000BLIL.4001291368BMFW-0000000000MABEDI GOLEKANY00000000000000000000000000000000000000000000000000000000000000000
1028226757110044676000000051528286762173012544100000013401000000000000BLIL.4000624323ULP1-0000000000BONTSHETSE KGOS00000000000000000000000000000000000000000000000000000000000000000
1028226757110044676000000051628316762177959825100000040596000000000000BLIL.4002732699ULM5-0000000000PONO MOLOI     00000000000000000000000000000000000000000000000000000000000000000
1028226757110044676000000051728306762483580067100000026775000000000000BLIL.4006231019URA1-0000000000KEN KELOBANG   00000000000000000000000000000000000000000000000000000000000000000
1028226757110044676000000051828286762020633922100000027348000000000000BLIL.4001629606BMFW-0000000000PELOTSHWEU OTEN00000000000000000000000000000000000000000000000000000000000000000
1028226757110044676000000051928126762593633871100000035000000000000000BLIL.4006392502MFDS-0000000000KESEGOFETSE GAL00000000000000000000000000000000000000000000000000000000000000000
1028226757110044676000000052028556762248994007100000035646000000000000BLIL.4000189575BMFW-0000000000ELLA KEITATOTSE00000000000000000000000000000000000000000000000000000000000000000
1028226757110044676000000052128286762086950576100000045887000000000000BLIL.4006928842PSTA-0000000000KEALEBOGA KEITS00000000000000000000000000000000000000000000000000000000000000000
1028226757110044676000000052228546762129144242100000291359000000000000BLIL.4006666846PSWL-0000000000IHUOMA BENEDICT00000000000000000000000000000000000000000000000000000000000000000
1028226757110044676000000052328516762345913728100000013230000000000000BLIL.4005291360BMFW-0000000000MUKAMBA PETER R00000000000000000000000000000000000000000000000000000000000000000
1028226757110044676000000052428186762515585448100000303428000000000000BLIL.4005959190PSWL-0000000000SATIE'S KITCHEN00000000000000000000000000000000000000000000000000000000000000000
1028226757110044676000000052528506762286142791100000025123000000000000BLIL.4002674594BMFW-0000000000MPHO JUDITH SEG00000000000000000000000000000000000000000000000000000000000000000
1028226757110044676000000052628236762519072483100000022500000000000000BLIL.4006773152MFDS-0000000000KESENYAKANG KES00000000000000000000000000000000000000000000000000000000000000000
1028226757110044676000000052728286762323390691100000022500000000000000BLIL.4006740367MFRA-0000000000BOIKHUTSO LESOL00000000000000000000000000000000000000000000000000000000000000000
1028226757110044676000000052828566762766911880100000045700000000000000BLIL.4007268157BMFW-0000000000LENYALO GAKERAP00000000000000000000000000000000000000000000000000000000000000000
1028226757110044676000000052928146762529744121100000034581000000000000BLIL.4003120331BMFW-0000000000TINY POLLY MOLO00000000000000000000000000000000000000000000000000000000000000000
1028226757110044676000000053028146762244702206100000072558000000000000BLIL.4006452120PSWL-0000000000NTESANG NTESANG00000000000000000000000000000000000000000000000000000000000000000
1028226757110044676000000053128286762126340174100000043422000000000000BLIL.0000699778BMFW-0000000000KETLANTSHANG KG00000000000000000000000000000000000000000000000000000000000000000
1028226757110044676000000053228126762117487646100000057174000000000000BLIL.4000341066URA1-0000000000TIYAPO KELAPILE00000000000000000000000000000000000000000000000000000000000000000
1028226757110044676000000053328186762310161352100000012155000000000000BLIL.4001886406URA1-0000000000THATO          00000000000000000000000000000000000000000000000000000000000000000
1028226757110044676000000053428236762173798524100000039731000000000000BLIL.4002717211BMFW-0000000000GAONE MASESNYE 00000000000000000000000000000000000000000000000000000000000000000
1028226757110044676000000053528316762177959825100000029403000000000000BLIL.4002732835BMFW-0000000000PONO MOLOI     00000000000000000000000000000000000000000000000000000000000000000
1028226757110044676000000053628236762349989048100000075307000000000000BLIL.4004915374PSTA-0000000000ANITA LINDSTROM00000000000000000000000000000000000000000000000000000000000000000
1028226757110044676000000053728126762186780394100000020500000000000000BLIL.4005464070ULM5-0000000000SARAH K MOSWEU 00000000000000000000000000000000000000000000000000000000000000000
1028226757110044676000000053828286762326033082100000050000000000000000BLIL.4005884367URA1-0000000000OTENG DETHELE  00000000000000000000000000000000000000000000000000000000000000000
1028226757110044676000000053928196762558971266100000025469000000000000BLIL.4004294344BMFW-0000000000ORAPETSE ALBERT00000000000000000000000000000000000000000000000000000000000000000
1028226757110044676000000054028306762141020967100000050800000000000000BLIL.4005507226BMFW-0000000000SIMON KGETSANA 00000000000000000000000000000000000000000000000000000000000000000
1028226757110044676000000054128146762299030446100000020500000000000000BLIL.4004485341ULM5-0000000000GWILIZANI MBISE00000000000000000000000000000000000000000000000000000000000000000
1028226757110044676000000054228286762234059790100000028194000000000000BLIL.4003194857BMFW-0000000000KOZIBA TSIETSO 00000000000000000000000000000000000000000000000000000000000000000
1028226757110044676000000054328306762452562749100000014223000000000000BLIL.4001911465BMFW-0000000000GORATA OLEBILE 00000000000000000000000000000000000000000000000000000000000000000
1028226757110044676000000054428146762420777601100000600500000000000000BLIL.4003534051URA1-0000000000STORKFORT HOLDI00000000000000000000000000000000000000000000000000000000000000000
1028226757110044676000000054528166762679169120100000100000000000000000BLIL.4004738976URA1-0000000000THULISIZWE GILI00000000000000000000000000000000000000000000000000000000000000000
1028226757110044676000000054628186762333627349100000020500000000000000BLIL.4005025385ULM5-0000000000MABLE GAETSEWE 00000000000000000000000000000000000000000000000000000000000000000
1028226757110044676000000054728146762217340926100000037121000000000000BLIL.0000518417BMFW-0000000000MARELEDI PHOKOJ00000000000000000000000000000000000000000000000000000000000000000
1028226757110044676000000054828286762189460787100000032292000000000000BLIL.4003086587BMFW-0000000000LATOYA N KGOSIY00000000000000000000000000000000000000000000000000000000000000000
1028226757110044676000000054928316762181718275100000031500000000000000BLIL.4005839867ULP1-0000000000GALEGAKE OOKAME00000000000000000000000000000000000000000000000000000000000000000
1028226757110044676000000055028146762155120109100000145609000000000000BLIL.4005719623PSTA-0000000000HARDPRO (PTY) L00000000000000000000000000000000000000000000000000000000000000000
