020000000000000000000000000000000000000000000000000000000000000000000000000000000000000000000000000000000000000000000000000000000000000000000000000000000000000000000000000000000000
040000000000000000190306000000000000000000000000000000000000000000000000000000000000000000000000000000000000000000000000000000000000000000000000000000000000000000000000000000000000
1028226757110044676000000000128286762153409828100000067000000000000000BLIL.04001636960LORE0000000000BOTHO NKAWANA  00000000000000000000000000000000000000000000000000000000000000000
1028226757110044676000000000228146762236276558100000050000000000000000BLIL.4003428319ULM5-0000000000KEATS RAMSDEN  00000000000000000000000000000000000000000000000000000000000000000
1028226757110044676000000000328286762086932087100000034500000000000000BLIL.04004428618LORE0000000000THEO BOGATSU   00000000000000000000000000000000000000000000000000000000000000000
1028226757110044676000000000428546762043928623100000044670000000000000BLIL.4000541662ULM3-0000000000KEDIRILE BOKANI00000000000000000000000000000000000000000000000000000000000000000
1028226757110044676000000000528286762235879072100000029657000000000000BLIL.4004177174BMFW-0000000000SYLVIA K MODISA00000000000000000000000000000000000000000000000000000000000000000
1028226757110044676000000000628176762298324246100000015876000000000000BLIL.4004726515BMFW-0000000000DIDIMALANG KHUM00000000000000000000000000000000000000000000000000000000000000000
1028226757110044676000000000728456762622504729100000021525000000000000BLIL.4005893403ULM5-0000000000KEMPHO NGONGORE00000000000000000000000000000000000000000000000000000000000000000
1028226757110044676000000000828186762614030542100000020500000000000000BLIL.4005797073URA1-0000000000UNODA SAMUEL   00000000000000000000000000000000000000000000000000000000000000000
1028226757110044676000000000928236762695135147100000052500000000000000BLIL.4005755833MFDS-0000000000KABELO BAKGETHI00000000000000000000000000000000000000000000000000000000000000000
1028226757110044676000000001028286762276560911100000020500000000000000BLIL.4007270534MFRA-0000000000TEFO ABRAHAM MA00000000000000000000000000000000000000000000000000000000000000000
1028226757110044676000000001128186762029244225100000008700000000000000BLIL.4007045002BMFW-0000000000JAMES SETABOLE 00000000000000000000000000000000000000000000000000000000000000000
1028226757110044676000000001228456762604563371100000042500000000000000BLIL.4007303232MFDS-0000000000KHUMOETSILE KAS00000000000000000000000000000000000000000000000000000000000000000
1028226757110044676000000001328526762460657912100000050500000000000000BLIL.4005030647URA1-0000000000OLEBOGENG EUNIC00000000000000000000000000000000000000000000000000000000000000000
1028226757110044676000000001428456762510450381100000018300000000000000BLIL.4006000719BMFW-0000000000THUSO TSHELANE 00000000000000000000000000000000000000000000000000000000000000000
1028226757110044676000000001528126762399339003100000067039000000000000BLIL.4006229412MFDS-0000000000KABELO MPETANG 00000000000000000000000000000000000000000000000000000000000000000
1028226757110044676000000001628196762488808258100000026775000000000000BLIL.4005753572ULM5-0000000000MOGOMOTSI KOOAG00000000000000000000000000000000000000000000000000000000000000000
1028226757110044676000000001728286762101364488100000074900000000000000BLIL.4001706434ULP1-0000000000MOTSHABI LUDO T00000000000000000000000000000000000000000000000000000000000000000
1028226757110044676000000001828526762104206017100000128254000000000000BLIL.4005340010PSTA-0000000000LESOLE MOTHUSI 00000000000000000000000000000000000000000000000000000000000000000
1028226757110044676000000001928286762274626963100000020500000000000000BLIL.4001885002ULP1-0000000000SUSAN D JACOB  00000000000000000000000000000000000000000000000000000000000000000
1028226757110044676000000002028456762206818504100000048630000000000000BLIL.4000012279BMFW-0000000000SETLALEKGOSI SE00000000000000000000000000000000000000000000000000000000000000000
1028226757110044676000000002128456762185902262100000031780000000000000BLIL.4000409543BMFW-0000000000TSHOGANETSO KOP00000000000000000000000000000000000000000000000000000000000000000
1028226757110044676000000002228196762617804168100000037300000000000000BLIL.4006566496BMFW-0000000000JOHN JANE      00000000000000000000000000000000000000000000000000000000000000000
1028226757110044676000000002328186762188965449100000032500000000000000BLIL.4006381105MFRA-0000000000THEBE KEATLHOLE00000000000000000000000000000000000000000000000000000000000000000
1028226757110044676000000002428826762763396861100000085813000000000000BLIL.4007116190PSWL-0000000000KAONE DIKGOMO  00000000000000000000000000000000000000000000000000000000000000000
1028226757110044676000000002528236762200776790100000012200000000000000BLIL.4006742408BMFW-0000000000KAGISANO GALEBO00000000000000000000000000000000000000000000000000000000000000000
1028226757110044676000000002628316762008519491100000040202000000000000BLIL.0000695635ULM3-0000000000COLLIN GORATA M00000000000000000000000000000000000000000000000000000000000000000
1028226757110044676000000002728146760711179049100000010500000000000000BLIL.4000763737URA1-0000000000WAITSE BOAMMAAR00000000000000000000000000000000000000000000000000000000000000000
1028226757110044676000000002828166762001281162100000110000000000000000BLIL.4001424571URA1-0000000000LLOYD COCKY SIA00000000000000000000000000000000000000000000000000000000000000000
1028226757110044676000000002928286762113781927100000049005000000000000BLIL.4004998504ULMG-0000000000CLAUDINAH MAREA00000000000000000000000000000000000000000000000000000000000000000
1028226757110044676000000003028226762369556463100000340000000000000000BLIL.4005887747MFRA-0000000000MESSIDOR INVEST00000000000000000000000000000000000000000000000000000000000000000
1028226757110044676000000003128566762604112235100000027000000000000000BLIL.4007006640BMFW-0000000000LEBOKO LEFASO  00000000000000000000000000000000000000000000000000000000000000000
1028226757110044676000000003228146762196529956100000014354000000000000BLIL.4003105610BMFW-0000000000MODIMOOSI RAPHU00000000000000000000000000000000000000000000000000000000000000000
1028226757110044676000000003328146762020537083100000016200000000000000BLIL.4005557768BMFW-0000000000THAPELO MAOTSEL00000000000000000000000000000000000000000000000000000000000000000
1028226757110044676000000003428286762313125123100000028555000000000000BLIL.4004209884BMFW-0000000000TSHOLOFELO MOGO00000000000000000000000000000000000000000000000000000000000000000
1028226757110044676000000003528556762243194511100000033550000000000000BLIL.4005595289ULP1-0000000000KESWELANG PHUWE00000000000000000000000000000000000000000000000000000000000000000
1028226757110044676000000003628236762689376905100000031500000000000000BLIL.4005780191ULP1-0000000000ORAPELETSWE OGO00000000000000000000000000000000000000000000000000000000000000000
1028226757110044676000000003728176762113096037100000019700000000000000BLIL.4006540038BMFW-0000000000KEEMENAO KGOSIE00000000000000000000000000000000000000000000000000000000000000000
1028226757110044676000000003828546762002349844100000263960000000000000BLIL.4005044296ULMG-0000000000KGOPODISO JUSTI00000000000000000000000000000000000000000000000000000000000000000
1028226757110044676000000003928236762063411608100000102500000000000000BLIL.4007233954MFDS-0000000000MOTAMEDI MANYEM00000000000000000000000000000000000000000000000000000000000000000
1028226757110044676000000004028286762276564666100000018176000000000000BLIL.4003910156BMFW-0000000000SALOME GAOLEKWE00000000000000000000000000000000000000000000000000000000000000000
1028226757110044676000000004128286762113781927100000038534000000000000BLIL.4004586810PSTA-0000000000CLAUDINAH MAREA00000000000000000000000000000000000000000000000000000000000000000
1028226757110044676000000004228286762113264642100000052024000000000000BLIL.0000755279BMFW-0000000000ONALENNA MAENGE00000000000000000000000000000000000000000000000000000000000000000
1028226757110044676000000004328186762738061390100000011400000000000000BLIL.4006550659BMFW-0000000000LINGANI PHULUWE00000000000000000000000000000000000000000000000000000000000000000
1028226757110044676000000004428556762680653500100000020100000000000000BLIL.4006765698BMFW-0000000000THATO LOVIN DIT00000000000000000000000000000000000000000000000000000000000000000
1028226757110044676000000004528186762547234914100000027900000000000000BLIL.4007091477BMFW-0000000000OOKEDITSE MAKOB00000000000000000000000000000000000000000000000000000000000000000
1028226757110044676000000004628286762113781117100000010500000000000000BLIL.0000625464URA1-0000000000GORATA TLHALE D00000000000000000000000000000000000000000000000000000000000000000
1028226757110044676000000004728306762742822697100000020000000000000000BLIL.4006956433BMFW-0000000000MONICAH GORATA 00000000000000000000000000000000000000000000000000000000000000000
1028226757110044676000000004828286762236539948100000165000000000000000BLIL.4005240898URA1-0000000000KUTLO STEPHEN M00000000000000000000000000000000000000000000000000000000000000000
1028226757110044676000000004928456762689183970100000028300000000000000BLIL.4005766159BMFW-0000000000WETSHO GALALETS00000000000000000000000000000000000000000000000000000000000000000
1028226757110044676000000005028286762234528505100000022700000000000000BLIL.4005520783BMFW-0000000000CLEMENT MBAKISI00000000000000000000000000000000000000000000000000000000000000000
1028226757110044676000000005128526762086964246100000050000000000000000BLIL.4007217106MFRA-0000000000ONALENNA GOABAO00000000000000000000000000000000000000000000000000000000000000000
1028226757110044676000000005228146762335455623100000012500000000000000BLIL.4006743789BMFW-0000000000RATIDZAI MURERI00000000000000000000000000000000000000000000000000000000000000000
1028226757110044676000000005328236762588366263100000015300000000000000BLIL.4006642511BMFW-0000000000NICOLAS MPHEE  00000000000000000000000000000000000000000000000000000000000000000
1028226757110044676000000005428456762084103789100000066104000000000000BLIL.4006866141PSTA-0000000000MOTHUSI LENNY M00000000000000000000000000000000000000000000000000000000000000000
1028226757110044676000000005528146762635461461100000011300000000000000BLIL.4006677502BMFW-0000000000MARANG SEIPHI  00000000000000000000000000000000000000000000000000000000000000000
1028226757110044676000000005628306762349865412100000023485000000000000BLIL.4004954134BMFW-0000000000BABOLOKI FRANK 00000000000000000000000000000000000000000000000000000000000000000
1028226757110044676000000005728236762572256553100000014900000000000000BLIL.4006929068BMFW-0000000000REETSANG OKOCHA00000000000000000000000000000000000000000000000000000000000000000
1028226757110044676000000005828526762237825370100000035381000000000000BLIL.4004219201URA1-0000000000MADALE SEBELE  00000000000000000000000000000000000000000000000000000000000000000
1028226757110044676000000005928186762061178440100000030792000000000000BLIL.4003416796BMFW-0000000000GORATA KETHAMIL00000000000000000000000000000000000000000000000000000000000000000
1028226757110044676000000006028146762441528182100000012500000000000000BLIL.4005579740BMFW-0000000000BASADI MASITHA 00000000000000000000000000000000000000000000000000000000000000000
1028226757110044676000000006128506762392651735100000010800000000000000BLIL.4006768816BMFW-0000000000LESEGO MORAKE  00000000000000000000000000000000000000000000000000000000000000000
1028226757110044676000000006228896762688055782100000043500000000000000BLIL.4006805066BMFW-0000000000MICHAEL PHIRI  00000000000000000000000000000000000000000000000000000000000000000
1028226757110044676000000006328286762086993865100000049122000000000000BLIL.4001248886ULM3-0000000000CECILIA MOTHIBI00000000000000000000000000000000000000000000000000000000000000000
1028226757110044676000000006428176762458049296100000014332000000000000BLIL.4004346783BMFW-0000000000OTENG PHILLIMON00000000000000000000000000000000000000000000000000000000000000000
1028226757110044676000000006528516762504371874100000015655000000000000BLIL.4004688204BMFW-0000000000ONKARABILE LEBO00000000000000000000000000000000000000000000000000000000000000000
1028226757110044676000000006628236762662389628100000016905000000000000BLIL.4005722014BMFW-0000000000KEHAKGAMTSE MOR00000000000000000000000000000000000000000000000000000000000000000
1028226757110044676000000006728186762486761268100000030000000000000000BLIL.4006745105MFRA-0000000000KEFELETSWE BUSA00000000000000000000000000000000000000000000000000000000000000000
1028226757110044676000000006828146762553862113100000014700000000000000BLIL.4004333601BMFW-0000000000KITSO MOJI     00000000000000000000000000000000000000000000000000000000000000000
1028226757110044676000000006928286762508837955100000052500000000000000BLIL.4006663929MFDS-0000000000DENNIS KENANAO 00000000000000000000000000000000000000000000000000000000000000000
1028226757110044676000000007028236762473283192100000020506000000000000BLIL.4005014190BMFW-0000000000THAPELO CHABAES00000000000000000000000000000000000000000000000000000000000000000
1028226757110044676000000007128556762200318625100000037700000000000000BLIL.4005409535BMFW-0000000000PEYA BAATHOLENG00000000000000000000000000000000000000000000000000000000000000000
1028226757110044676000000007228456762564692781100000013300000000000000BLIL.4006025820BMFW-0000000000KABOYAONE TRAVI00000000000000000000000000000000000000000000000000000000000000000
1028226757110044676000000007328286762227849421100000030500000000000000BLIL.4005180220URA1-0000000000METLHA MANGWANE00000000000000000000000000000000000000000000000000000000000000000
1028226757110044676000000007428236762095442902100000067714000000000000BLIL.4006629101PSTA-0000000000MOSETLHA SEBERA00000000000000000000000000000000000000000000000000000000000000000
1028226757110044676000000007528456762691427259100000034085000000000000BLIL.4006950819PSTA-0000000000BEAUTY FOLOGANG00000000000000000000000000000000000000000000000000000000000000000
1028226757110044676000000007628556762533751336100000022500000000000000BLIL.4006829587MFDS-0000000000SETIKO BOSEKWAN00000000000000000000000000000000000000000000000000000000000000000
1028226757110044676000000007728186762174919674100000018836000000000000BLIL.4001479869BMFW-0000000000THATAYAONE TOKO00000000000000000000000000000000000000000000000000000000000000000
1028226757110044676000000007828236762494773396100000053025000000000000BLIL.4005721018ULP1-0000000000KGAOGANO WANDUM00000000000000000000000000000000000000000000000000000000000000000
1028226757110044676000000007928316762198165774100000041448000000000000BLIL.4001407890BMFW-0000000000BALESENG KEITSH00000000000000000000000000000000000000000000000000000000000000000
1028226757110044676000000008028146762290406943100000013777000000000000BLIL.4002936427BMFW-0000000000TSHENOLO KGOTLE00000000000000000000000000000000000000000000000000000000000000000
1028226757110044676000000008128146762197478368100000021499000000000000BLIL.4004422078BMFW-0000000000KARABO SEBULE  00000000000000000000000000000000000000000000000000000000000000000
1028226757110044676000000008228146757111201861100000047440000000000000BLIL.4000105836BMFW-0000000000KAGO KEITUMETSE00000000000000000000000000000000000000000000000000000000000000000
1028226757110044676000000008328286762276558502100000027286000000000000BLIL.4002744571ULM5-0000000000GAONE MOLEFE   00000000000000000000000000000000000000000000000000000000000000000
1028226757110044676000000008428826762493928835100000029763000000000000BLIL.4004683377PSTA-0000000000DORIS MALEBOGO 00000000000000000000000000000000000000000000000000000000000000000
1028226757110044676000000008528556762243145639100000021525000000000000BLIL.4005736671ULP1-0000000000ODIRILE OGANEDI00000000000000000000000000000000000000000000000000000000000000000
1028226757110044676000000008628526762252904141100000036905000000000000BLIL.4004965701ULP1-0000000000UTLWANANG MERE 00000000000000000000000000000000000000000000000000000000000000000
1028226757110044676000000008728236762754970715100000034500000000000000BLIL.4007083036BMFW-0000000000TEBOGO MKHUHLAN00000000000000000000000000000000000000000000000000000000000000000
1028226757110044676000000008828896762761358938100000015100000000000000BLIL.4007251958BMFW-0000000000EDWIN BONAMELO 00000000000000000000000000000000000000000000000000000000000000000
1028226757110044676000000008928556762216175704100000020000000000000000BLIL.4007245412MFRA-0000000000MELEKO TATHELEL00000000000000000000000000000000000000000000000000000000000000000
1028226757110044676000000009028146762228624723100000041907000000000000BLIL.4003231714BMFW-0000000000KEMMONYE MOILWA00000000000000000000000000000000000000000000000000000000000000000
1028226757110044676000000009128286762049675583100000038322000000000000BLIL.4000155784BMFW-0000000000KOKETSO MOJUTA 00000000000000000000000000000000000000000000000000000000000000000
1028226757110044676000000009228306762281034612100000025000000000000000BLIL.4006677049MFDS-0000000000GOPOLANG GLORIA00000000000000000000000000000000000000000000000000000000000000000
1028226757110044676000000009328286762133128307100000049776000000000000BLIL.4006594930PSWL-0000000000MOTHUSI SETSWAL00000000000000000000000000000000000000000000000000000000000000000
1028226757110044676000000009428236762506611319100000016905000000000000BLIL.4005467052BMFW-0000000000KELEEMETSE KEHE00000000000000000000000000000000000000000000000000000000000000000
1028226757110044676000000009528286762086991265100000059867000000000000BLIL.4004159366BMFW-0000000000LUCAS TEKO MOSA00000000000000000000000000000000000000000000000000000000000000000
1028226757110044676000000009628126762402218681100000017640000000000000BLIL.4004872487BMFW-0000000000LORNA MORUPI   00000000000000000000000000000000000000000000000000000000000000000
1028226757110044676000000009728286762326785386100000070500000000000000BLIL.4003210958URA1-0000000000RETHABILE MOGAT00000000000000000000000000000000000000000000000000000000000000000
1028226757110044676000000009828146762273513658100000100500000000000000BLIL.4006292102ULM5-0000000000MINKIE SEABELO 00000000000000000000000000000000000000000000000000000000000000000
1028226757110044676000000009928146762160913987100000070728000000000000BLIL.4005931829PSTA-0000000000OLERATO BOITUME00000000000000000000000000000000000000000000000000000000000000000
1028226757110044676000000010028456762562418501100000013700000000000000BLIL.4007056386BMFW-0000000000RATANANG MOSIKA00000000000000000000000000000000000000000000000000000000000000000
1028226757110044676000000010128456762185619007100000020500000000000000BLIL.0000619821ULP1-0000000000KENEILWE PEARL 00000000000000000000000000000000000000000000000000000000000000000
1028226757110044676000000010228526762543788014100000020500000000000000BLIL.4006153277ULM3-0000000000OREEDITSE KEWAK00000000000000000000000000000000000000000000000000000000000000000
1028226757110044676000000010328236762111622660100000042369000000000000BLIL.4003715699BMFW-0000000000KENANAO AVILINO00000000000000000000000000000000000000000000000000000000000000000
1028226757110044676000000010428126762233138818100000038038000000000000BLIL.4004466090BMFW-0000000000SEBOIHENG MHAPH00000000000000000000000000000000000000000000000000000000000000000
1028226757110044676000000010528566762330815567100000025000000000000000BLIL.4006760876MFDS-0000000000KEITUMETSE LEKW00000000000000000000000000000000000000000000000000000000000000000
1028226757110044676000000010628166762349925464100000017624000000000000BLIL.4001511792BMFW-0000000000OTENG NTONA C M00000000000000000000000000000000000000000000000000000000000000000
1028226757110044676000000010728456762399543240100000079869000000000000BLIL.4006139138PSWL-0000000000PEO ABEL MOTSUM00000000000000000000000000000000000000000000000000000000000000000
1028226757110044676000000010828126762403790323100000018510000000000000BLIL.4000922953BMFW-0000000000OBUSITSWE MOTSH00000000000000000000000000000000000000000000000000000000000000000
1028226757110044676000000010928456762405560071100000022601000000000000BLIL.4004603836ULP1-0000000000THABO MOTSAGE  00000000000000000000000000000000000000000000000000000000000000000
1028226757110044676000000011028556762253378650100000028941000000000000BLIL.4003760678BMFW-0000000000RACHEL PETER   00000000000000000000000000000000000000000000000000000000000000000
1028226757110044676000000011128126762342650208100000028886000000000000BLIL.4004840169BMFW-0000000000MOMPOLOKI PHOLE00000000000000000000000000000000000000000000000000000000000000000
1028226757110044676000000011228286762372772733100000025962000000000000BLIL.4002825638BMFW-0000000000ONIAH MOLOKO   00000000000000000000000000000000000000000000000000000000000000000
1028226757110044676000000011328286762406280933100000049500000000000000BLIL.4005353257ULMG-0000000000NYAMBE KATHIANA00000000000000000000000000000000000000000000000000000000000000000
1028226757110044676000000011428236762125395732100000013371000000000000BLIL.4000756724BMFW-0000000000LETHOGILE KELES00000000000000000000000000000000000000000000000000000000000000000
1028226757110044676000000011528186762219337111100000028738000000000000BLIL.4004604052URA1-0000000000PHARMA AFRICA (00000000000000000000000000000000000000000000000000000000000000000
1028226757110044676000000011628456762375801646100000045417000000000000BLIL.4000823410BMFW-0000000000MUSAWENKOSI NCU00000000000000000000000000000000000000000000000000000000000000000
1028226757110044676000000011728186762282450817100000048729000000000000BLIL.4007176928PSTA-0000000000KABOYAONE MAJUB00000000000000000000000000000000000000000000000000000000000000000
1028226757110044676000000011828176762277269843100000013200000000000000BLIL.4005777912BMFW-0000000000BAKANG MOOKI   00000000000000000000000000000000000000000000000000000000000000000
1028226757110044676000000011928456762436823852100000040980000000000000BLIL.4002084969BMFW-0000000000INNOCENT KANYAM00000000000000000000000000000000000000000000000000000000000000000
1028226757110044676000000012028186762311796926100000033941000000000000BLIL.4003080060ULM3-0000000000ELLEN TAWANA   00000000000000000000000000000000000000000000000000000000000000000
1028226757110044676000000012128186762255026570100000030765000000000000BLIL.4005551885BMFW-0000000000PHOMOLO OLEKANT00000000000000000000000000000000000000000000000000000000000000000
1028226757110044676000000012228456762463211088100000019600000000000000BLIL.4007230231BMFW-0000000000THABISO JEREMIA00000000000000000000000000000000000000000000000000000000000000000
1028226757110044676000000012328526762183739261100000051417000000000000BLIL.4002327119BMFW-0000000000TSHENOLO RYAN M00000000000000000000000000000000000000000000000000000000000000000
1028226757110044676000000012428286762088260981100000053025000000000000BLIL.4003215657URA1-0000000000THUTO BAGWASI  00000000000000000000000000000000000000000000000000000000000000000
1028226757110044676000000012528146762144511674100000022300000000000000BLIL.4006625212BMFW-0000000000DUDUETSANG MARU00000000000000000000000000000000000000000000000000000000000000000
1028226757110044676000000012628526762418499853100000037072000000000000BLIL.4002243290URA1-0000000000LEBANG EMMANUEL00000000000000000000000000000000000000000000000000000000000000000
1028226757110044676000000012728236762537819271100000014400000000000000BLIL.4006311023BMFW-0000000000KEOLEBOGILE JAC00000000000000000000000000000000000000000000000000000000000000000
1028226757110044676000000012828236762699282192100000021525000000000000BLIL.4006119271ULP1-0000000000ONALETHATA KEAB00000000000000000000000000000000000000000000000000000000000000000
1028226757110044676000000012928166762722167443100000022500000000000000BLIL.4006532922MFDS-0000000000ANTHONY KATANDO00000000000000000000000000000000000000000000000000000000000000000
1028226757110044676000000013028286762086969163100000108754000000000000BLIL.4006140991PSTA-0000000000AMOGELANG S MAN00000000000000000000000000000000000000000000000000000000000000000
1028226757110044676000000013128126762280668321100000026900000000000000BLIL.4007199087BMFW-0000000000ITUMELENG MATLH00000000000000000000000000000000000000000000000000000000000000000
1028226757110044676000000013228526762290721797100000071101000000000000BLIL.0000646597BMFW-0000000000KOKETSO TUELO L00000000000000000000000000000000000000000000000000000000000000000
1028226757110044676000000013328146762055237476100000011500000000000000BLIL.4005955112BMFW-0000000000DORCUS NTHABISA00000000000000000000000000000000000000000000000000000000000000000
1028226757110044676000000013428286762087688085100000028100000000000000BLIL.4006865925BMFW-0000000000MASEGO JENELE M00000000000000000000000000000000000000000000000000000000000000000
1028226757110044676000000013528526762271159884100000038367000000000000BLIL.4004173358BMFW-0000000000BOIKHUTSO MAKGA00000000000000000000000000000000000000000000000000000000000000000
1028226757110044676000000013628146762456575219100000122437000000000000BLIL.4005064137PSTA-0000000000YVONNE PELONOMI00000000000000000000000000000000000000000000000000000000000000000
1028226757110044676000000013728186762033037369100000022500000000000000BLIL.4005634724BMFW-0000000000KEBARENG PAAKAN00000000000000000000000000000000000000000000000000000000000000000
1028226757110044676000000013828546757110030287100000071863000000000000BLIL.4005322375PSTA-0000000000PATRICK OTLAADI00000000000000000000000000000000000000000000000000000000000000000
1028226757110044676000000013928516762120938826100000032025000000000000BLIL.4005342931ULM5-0000000000SYNACK NAWA NAW00000000000000000000000000000000000000000000000000000000000000000
1028226757110044676000000014028526762277040300100000018253000000000000BLIL.4000647204BMFW-0000000000BOIKHUTSO MALAN00000000000000000000000000000000000000000000000000000000000000000
1028226757110044676000000014128286762087006691100000023815000000000000BLIL.4004607199BMFW-0000000000PRECIOUS BELLE 00000000000000000000000000000000000000000000000000000000000000000
1028226757110044676000000014228236762451693131100000034834000000000000BLIL.4006107103PSTA-0000000000MPHO MAKGETHO  00000000000000000000000000000000000000000000000000000000000000000
1028226757110044676000000014328286762321515671100000018895000000000000BLIL.0000244898BMFW-0000000000CHINNGWE SAKARE00000000000000000000000000000000000000000000000000000000000000000
1028226757110044676000000014428166762401864295100000023687000000000000BLIL.4000736215BMFW-0000000000MARLYNE PULANE 00000000000000000000000000000000000000000000000000000000000000000
1028226757110044676000000014528286762171890009100000047086000000000000BLIL.4006622719PSTA-0000000000STANFORD TSHEPO00000000000000000000000000000000000000000000000000000000000000000
1028226757110044676000000014628126762106094022100000020500000000000000BLIL.4006927008BMFW-0000000000GADIINELWE RATL00000000000000000000000000000000000000000000000000000000000000000
1028226757110044676000000014728236762500444980100000021525000000000000BLIL.4006266848ULP1-0000000000OTENG MOTSWAI  00000000000000000000000000000000000000000000000000000000000000000
1028226757110044676000000014828286762647326455100000011025000000000000BLIL.4005454190BMFW-0000000000TUMELO KEBAITSA00000000000000000000000000000000000000000000000000000000000000000
1028226757110044676000000014928186762617188348100000012500000000000000BLIL.4006391645BMFW-0000000000SHEPHERD PHILLI00000000000000000000000000000000000000000000000000000000000000000
1028226757110044676000000015028146762662106965100000013440000000000000BLIL.4005344373BMFW-0000000000THABISO DITLHOK00000000000000000000000000000000000000000000000000000000000000000
1028226757110044676000000015128526762418499853100000024918000000000000BLIL.4002243012ULP1-0000000000LEBANG EMMANUEL00000000000000000000000000000000000000000000000000000000000000000
1028226757110044676000000015228146762471636450100000061300000000000000BLIL.4005543850BMFW-0000000000VINCENT BIKIE M00000000000000000000000000000000000000000000000000000000000000000
1028226757110044676000000015328286762377609733100000014998000000000000BLIL.4000023074BMFW-0000000000MALEBOGO MOREET00000000000000000000000000000000000000000000000000000000000000000
1028226757110044676000000015428146762249175771100000013913000000000000BLIL.4001045509BMFW-0000000000BUSHI MALOPE   00000000000000000000000000000000000000000000000000000000000000000
1028226757110044676000000015528236762689376905100000017850000000000000BLIL.4005780434BMFW-0000000000ORAPELETSWE OGO00000000000000000000000000000000000000000000000000000000000000000
1028226757110044676000000015628306762504810541100000025100000000000000BLIL.4006811243BMFW-0000000000SEKGOLA MOTSOKO00000000000000000000000000000000000000000000000000000000000000000
1028226757110044676000000015728526762187353702100000018191000000000000BLIL.4003476663BMFW-0000000000MASEDI NTEKOLA 00000000000000000000000000000000000000000000000000000000000000000
1028226757110044676000000015828306762599553099100000035000000000000000BLIL.4007127458MFDS-0000000000JOSHUA TAOLO RA00000000000000000000000000000000000000000000000000000000000000000
1028226757110044676000000015928126762683765419100000025000000000000000BLIL.4006505434MFRA-0000000000GLORIA TIRAGALO00000000000000000000000000000000000000000000000000000000000000000
1028226757110044676000000016028566762354152028100000028361000000000000BLIL.4001934689BMFW-0000000000REGINAH E NTLHA00000000000000000000000000000000000000000000000000000000000000000
1028226757110044676000000016128826762020664612100000029100000000000000BLIL.04000287494MPFP0000000000GOBUSAMANG DEMP00000000000000000000000000000000000000000000000000000000000000000
1028226757110044676000000016228166762359043363100000019782000000000000BLIL.4000238071URA1-0000000000TEBOGO SAAKANE 00000000000000000000000000000000000000000000000000000000000000000
1028226757110044676000000016328166762690773588100000016900000000000000BLIL.4005905866BMFW-0000000000MERAPELO MINGIE00000000000000000000000000000000000000000000000000000000000000000
1028226757110044676000000016428286762235877208100000077331000000000000BLIL.4006379524PSWL-0000000000LOLO REBAFENYI 00000000000000000000000000000000000000000000000000000000000000000
1028226757110044676000000016528236762175644056100000027500000000000000BLIL.4006771833MFDS-0000000000OSENTSE NKAPE  00000000000000000000000000000000000000000000000000000000000000000
1028226757110044676000000016628526762135948191100000067216000000000000BLIL.4002975295ULMG-0000000000BAKAN EVER BORU00000000000000000000000000000000000000000000000000000000000000000
1028226757110044676000000016728556762236713253100000030000000000000000BLIL.4006806525MFDS-0000000000GABAREUTLWE BOL00000000000000000000000000000000000000000000000000000000000000000
1028226757110044676000000016828236762494738853100000012155000000000000BLIL.4003253275URA1-0000000000AFRICA KGOSINTW00000000000000000000000000000000000000000000000000000000000000000
1028226757110044676000000016928896762707875871100000013100000000000000BLIL.4007055649BMFW-0000000000GOMOLEMO MASOLE00000000000000000000000000000000000000000000000000000000000000000
1028226757110044676000000017028556762661914335100000026500000000000000BLIL.4006709717BMFW-0000000000KAGISO KENYADIT00000000000000000000000000000000000000000000000000000000000000000
1028226757110044676000000017128286762379347878100000028114000000000000BLIL.4002706115BMFW-0000000000WABONE MASUNGA 00000000000000000000000000000000000000000000000000000000000000000
1028226757110044676000000017228196762076669046100000021486000000000000BLIL.4001502656BMFW-0000000000FELICITY MPHO K00000000000000000000000000000000000000000000000000000000000000000
1028226757110044676000000017328176762482801092100000023731000000000000BLIL.4002712910ULM3-0000000000OTSILE PATRICK 00000000000000000000000000000000000000000000000000000000000000000
1028226757110044676000000017428286762087030343100000077175000000000000BLIL.4004079687URA1-0000000000TEMO TEBOGO TOM00000000000000000000000000000000000000000000000000000000000000000
1028226757110044676000000017528176762129174041100000050000000000000000BLIL.4004755495MFDS-0000000000DANIEL PINANE  00000000000000000000000000000000000000000000000000000000000000000
1028226757110044676000000017628286762227849421100000019431000000000000BLIL.0000241345BMFW-0000000000METLHA MANGWANE00000000000000000000000000000000000000000000000000000000000000000
1028226757110044676000000017728456762610257207100000019500000000000000BLIL.4006804824BMFW-0000000000MPHO T. MOAPARE00000000000000000000000000000000000000000000000000000000000000000
1028226757110044676000000017828286762488413429100000070000000000000000BLIL.4007153102MFDS-0000000000MERICAH TJIHUMI00000000000000000000000000000000000000000000000000000000000000000
1028226757110044676000000017928456762180693098100000030100000000000000BLIL.4005159623BMFW-0000000000KENNEDY METLHA 00000000000000000000000000000000000000000000000000000000000000000
1028226757110044676000000018028516762212412077100000116341000000000000BLIL.4003661460ULMG-0000000000BASADI RAMHITSH00000000000000000000000000000000000000000000000000000000000000000
1028226757110044676000000018128186762273324683100000019074000000000000BLIL.4004717788BMFW-0000000000OFENTSE KESIILW00000000000000000000000000000000000000000000000000000000000000000
1028226757110044676000000018228146762478221238100000047775000000000000BLIL.4005797332BMFW-0000000000MODIBEDI KENANA00000000000000000000000000000000000000000000000000000000000000000
1028226757110044676000000018328166762274156126100000049122000000000000BLIL.4000823143URA1-0000000000TLAMELEO NGIDI 00000000000000000000000000000000000000000000000000000000000000000
1028226757110044676000000018428516762741807012100000018100000000000000BLIL.4006926222BMFW-0000000000JOHN JAN JOSHUA00000000000000000000000000000000000000000000000000000000000000000
1028226757110044676000000018528286762347812845100000032025000000000000BLIL.4005945444ULM3-0000000000REFILWE MMIPI  00000000000000000000000000000000000000000000000000000000000000000
1028226757110044676000000018628546762086937532100000055800000000000000BLIL.4003254815BMFW-0000000000BONOLO DINOKOPI00000000000000000000000000000000000000000000000000000000000000000
1028226757110044676000000018728236762194893759100000012155000000000000BLIL.4002677089ULM5-0000000000KETSILE TONGWAN00000000000000000000000000000000000000000000000000000000000000000
1028226757110044676000000018828186762273324683100000027000000000000000BLIL.04004717542PPLC0000000000OFENTSE KESIILW00000000000000000000000000000000000000000000000000000000000000000
1028226757110044676000000018928286762336627271100000015104000000000000BLIL.4004455059BMFW-0000000000KGOMODITSILE KE00000000000000000000000000000000000000000000000000000000000000000
1028226757110044676000000019028166762223987605100000055550000000000000BLIL.4005095661ULMG-0000000000QUEEN NOLWANDLE00000000000000000000000000000000000000000000000000000000000000000
1028226757110044676000000019128286762101128339100000065985000000000000BLIL.4005537851PSTA-0000000000NEO KOOEPILE   00000000000000000000000000000000000000000000000000000000000000000
1028226757110044676000000019228286762085893230100000027800000000000000BLIL.4006380060BMFW-0000000000DINEO LETSHWITI00000000000000000000000000000000000000000000000000000000000000000
1028226757110044676000000019328556762694578025100000022700000000000000BLIL.4006767412BMFW-0000000000LELANANI ONTIRE00000000000000000000000000000000000000000000000000000000000000000
1028226757110044676000000019428146762160913987100000036500000000000000BLIL.4006456506BMFW-0000000000OLERATO BOITUME00000000000000000000000000000000000000000000000000000000000000000
1028226757110044676000000019528526762431925463100000037816000000000000BLIL.4004515449BMFW-0000000000LESEGO KEITSILE00000000000000000000000000000000000000000000000000000000000000000
1028226757110044676000000019628186762392591212100000017971000000000000BLIL.4004676291BMFW-0000000000GAGOSIMOLOGE RA00000000000000000000000000000000000000000000000000000000000000000
1028226757110044676000000019728236762500444980100000028100000000000000BLIL.4006269757BMFW-0000000000OTENG MOTSWAI  00000000000000000000000000000000000000000000000000000000000000000
1028226757110044676000000019828166762158562019100000026164000000000000BLIL.4001271883ULP1-0000000000TLHALEFO ODIRIL00000000000000000000000000000000000000000000000000000000000000000
1028226757110044676000000019928236762280146533100000011445000000000000BLIL.4005720559BMFW-0000000000LESEDI MALABE  00000000000000000000000000000000000000000000000000000000000000000
1028226757110044676000000020028286762612732778100000011600000000000000BLIL.4006226058BMFW-0000000000SUSAN OMPHILE M00000000000000000000000000000000000000000000000000000000000000000
1028226757110044676000000020128286762234685818100000043026000000000000BLIL.4007198382PSTA-0000000000ONKABETSE MOTSH00000000000000000000000000000000000000000000000000000000000000000
1028226757110044676000000020228126762603237018100000020000000000000000BLIL.4007254118MFDS-0000000000KGOMOTSO MMONAD00000000000000000000000000000000000000000000000000000000000000000
1028226757110044676000000020328316762269737931100000024918000000000000BLIL.4001335497ULM3-0000000000NORMAN KEBAFENT00000000000000000000000000000000000000000000000000000000000000000
1028226757110044676000000020428286762086964022100000076903000000000000BLIL.4003554764BMK1-0000000000OLERATO CLAUD M00000000000000000000000000000000000000000000000000000000000000000
1028226757110044676000000020528286762274570631100000021763000000000000BLIL.4003415415BMFW-0000000000TSHEPISO MBANGI00000000000000000000000000000000000000000000000000000000000000000
1028226757110044676000000020628236762628204878100000032500000000000000BLIL.4006723903MFRA-0000000000WAME BOGALE    00000000000000000000000000000000000000000000000000000000000000000
1028226757110044676000000020728286762092226177100000044651000000000000BLIL.4004533524ULMG-0000000000OPELO KETSIDILE00000000000000000000000000000000000000000000000000000000000000000
1028226757110044676000000020828526762363330798100000022500000000000000BLIL.4006665882MFDS-0000000000POGISO OMPHEMET00000000000000000000000000000000000000000000000000000000000000000
1028226757110044676000000020928456762078032861100000121000000000000000BLIL.4004098522ULMG-0000000000LEKGOTLA DAVID 00000000000000000000000000000000000000000000000000000000000000000
1028226757110044676000000021028286762538781172100000018193000000000000BLIL.4004916841BMFW-0000000000PETROS MABELEBE00000000000000000000000000000000000000000000000000000000000000000
1028226757110044676000000021128146762744368433100000028900000000000000BLIL.4007115916BMFW-0000000000ONKAGILE K KGAM00000000000000000000000000000000000000000000000000000000000000000
1028226757110044676000000021228236762413166704100000022601000000000000BLIL.4004014689ULM5-0000000000ONALENNA MATEBU00000000000000000000000000000000000000000000000000000000000000000
1028226757110044676000000021328286762194831395100000069575000000000000BLIL.4004067519URA1-0000000000BOTHO LEKOKO   00000000000000000000000000000000000000000000000000000000000000000
1028226757110044676000000021428126762603362394100000032025000000000000BLIL.4005419897ULP1-0000000000KAGO BABUSI    00000000000000000000000000000000000000000000000000000000000000000
1028226757110044676000000021528146762245309457100000046862000000000000BLIL.4005765030PSTA-0000000000TSHIAMO PONA MU00000000000000000000000000000000000000000000000000000000000000000
1028226757110044676000000021628166762703448466100000064001000000000000BLIL.4005421070PSTA-0000000000FRANCINAH M TSW00000000000000000000000000000000000000000000000000000000000000000
1028226757110044676000000021728236762443218202100000026775000000000000BLIL.4006119776ULM3-0000000000SEMAKALENG KEHU00000000000000000000000000000000000000000000000000000000000000000
1028226757110044676000000021828516762291438531100000012763000000000000BLIL.4002053396URA1-0000000000JENSEN RUNGWE S00000000000000000000000000000000000000000000000000000000000000000
1028226757110044676000000021928146762733375259100000035942000000000000BLIL.4004396631BMFW-0000000000ETSILE SESINYI 00000000000000000000000000000000000000000000000000000000000000000
1028226757110044676000000022028456762750124770100000015000000000000000BLIL.4003197376URA1-0000000000MOAGISI KGABOTS00000000000000000000000000000000000000000000000000000000000000000
1028226757110044676000000022128196762552746178100000030100000000000000BLIL.4006546131BMFW-0000000000LUCY KALAKANE  00000000000000000000000000000000000000000000000000000000000000000
1028226757110044676000000022228196762713900232100000016100000000000000BLIL.4006597899BMFW-0000000000OFENTSE LETSOGO00000000000000000000000000000000000000000000000000000000000000000
1028226757110044676000000022328126762270216825100000034150000000000000BLIL.4000768703BMFW-0000000000MOAGI MOLEFE   00000000000000000000000000000000000000000000000000000000000000000
1028226757110044676000000022428236762191590712100000019565000000000000BLIL.4002797469BMFW-0000000000BABINI PHILIP  00000000000000000000000000000000000000000000000000000000000000000
1028226757110044676000000022528456762319024626100000039951000000000000BLIL.0000205305ULP1-0000000000VIVID NEO MOGAN00000000000000000000000000000000000000000000000000000000000000000
1028226757110044676000000022628236762045068584100000026775000000000000BLIL.4005247573URA1-0000000000BALEHEDI MOATLA00000000000000000000000000000000000000000000000000000000000000000
1028226757110044676000000022728536762274757669100000021700000000000000BLIL.04005245212LORE0000000000KELEBOGILE RAMA00000000000000000000000000000000000000000000000000000000000000000
1028226757110044676000000022828236762687877616100000021525000000000000BLIL.4005780230ULP1-0000000000LEBELELANG SAOK00000000000000000000000000000000000000000000000000000000000000000
1028226757110044676000000022928186762122824669100000050279000000000000BLIL.4005625060PSTA-0000000000NEO NGWAKO     00000000000000000000000000000000000000000000000000000000000000000
1028226757110044676000000023028316762758076395100000020500000000000000BLIL.4007117976MFDS-0000000000KERAPETSE LEANA00000000000000000000000000000000000000000000000000000000000000000
1028226757110044676000000023128166762594096664100000014500000000000000BLIL.4005439615BMFW-0000000000MOGAKOLODI SEKO00000000000000000000000000000000000000000000000000000000000000000
1028226757110044676000000023228316762758076395100000024200000000000000BLIL.4007120870BMFW-0000000000LEBOGANG KERAPE00000000000000000000000000000000000000000000000000000000000000000
1028226757110044676000000023328236762536396832100000050500000000000000BLIL.4006133205ULP1-0000000000AARON SAMUZALA 00000000000000000000000000000000000000000000000000000000000000000
1028226757110044676000000023428166757130024088100000058699000000000000BLIL.4000010081BMFW-0000000000KHOSA MOLEBOGI 00000000000000000000000000000000000000000000000000000000000000000
1028226757110044676000000023528516762276761866100000019845000000000000BLIL.4006040541BMFW-0000000000KAHIMBI KAZIYO 00000000000000000000000000000000000000000000000000000000000000000
1028226757110044676000000023628606762305124331100000027600000000000000BLIL.4006711893BMFW-0000000000KHUMO MOILWA   00000000000000000000000000000000000000000000000000000000000000000
1028226757110044676000000023728506762578273197100000015600000000000000BLIL.4005708624BMFW-0000000000OREEDITSE MATLH00000000000000000000000000000000000000000000000000000000000000000
1028226757110044676000000023828126762485219507100000021525000000000000BLIL.4005475192ULM5-0000000000BONANG BIMBO   00000000000000000000000000000000000000000000000000000000000000000
1028226757110044676000000023928286762087018779100000018373000000000000BLIL.4003014835BMFW-0000000000BONNY BONANG SE00000000000000000000000000000000000000000000000000000000000000000
1028226757110044676000000024028126762200499912100000018585000000000000BLIL.4005719403BMFW-0000000000ABIGAIL KEBEEMA00000000000000000000000000000000000000000000000000000000000000000
1028226757110044676000000024128826762560992672100000064118000000000000BLIL.4005546939PSTA-0000000000PHEMELO MALEMA 00000000000000000000000000000000000000000000000000000000000000000
1028226757110044676000000024228506762306130296100000025403000000000000BLIL.4000928103BMFW-0000000000KETLOGETSWE GOI00000000000000000000000000000000000000000000000000000000000000000
1028226757110044676000000024328516762571382101100000103431000000000000BLIL.4005617823PSTA-0000000000UMTHABISI NDLOV00000000000000000000000000000000000000000000000000000000000000000
1028226757110044676000000024428286762368314284100000022900000000000000BLIL.4006456784BMFW-0000000000PAKO MOTLOGELWA00000000000000000000000000000000000000000000000000000000000000000
1028226757110044676000000024528566762420523640100000200000000000000000BLIL.4006555811MFDS-0000000000MUNEER AHMED KH00000000000000000000000000000000000000000000000000000000000000000
1028226757110044676000000024628186762192766099100000040500000000000000BLIL.4005862856ULP1-0000000000MACO LETLA ALMA00000000000000000000000000000000000000000000000000000000000000000
1028226757110044676000000024728306762281034612100000025100000000000000BLIL.4006682987BMFW-0000000000GOPOLANG GLORIA00000000000000000000000000000000000000000000000000000000000000000
1028226757110044676000000024828236762073616909100000014200000000000000BLIL.4006771998BMFW-0000000000KENEWANG KEHELE00000000000000000000000000000000000000000000000000000000000000000
1028226757110044676000000024928286762277527829100000025000000000000000BLIL.4003724751ULM5-0000000000LINDIWE ZUKU   00000000000000000000000000000000000000000000000000000000000000000
1028226757110044676000000025028826762414552069100000021900000000000000BLIL.4006878722BMFW-0000000000KEITUMETSE EVAH00000000000000000000000000000000000000000000000000000000000000000
1028226757110044676000000025128196762209988883100000028400000000000000BLIL.4006287298BMFW-0000000000KEDUMETSE MOREM00000000000000000000000000000000000000000000000000000000000000000
1028226757110044676000000025228186762119675265100000020771000000000000BLIL.4000127999URA1-0000000000IRENE PHIRINYAN00000000000000000000000000000000000000000000000000000000000000000
1028226757110044676000000025328526762355037196100000023460000000000000BLIL.4002120812BMFW-0000000000JULIA KHUMO THE00000000000000000000000000000000000000000000000000000000000000000
1028226757110044676000000025428516762126233030100000023269000000000000BLIL.4002635409BMFW-0000000000NANKOLE CHIZUKA00000000000000000000000000000000000000000000000000000000000000000
1028226757110044676000000025528566762343812013100000038060000000000000BLIL.4000146541BMFW-0000000000THABANG IAN OLD00000000000000000000000000000000000000000000000000000000000000000
1028226757110044676000000025628286762087004611100000057346000000000000BLIL.4001380206BMFW-0000000000LENKWETSE NTSOS00000000000000000000000000000000000000000000000000000000000000000
1028226757110044676000000025728146760711129771100000011924000000000000BLIL.4002722036BMFW-0000000000CHENDZIMU SABAT00000000000000000000000000000000000000000000000000000000000000000
1028226757110044676000000025828456762232889389100000019700000000000000BLIL.4005814227BMFW-0000000000LUCKY MOKOLARE 00000000000000000000000000000000000000000000000000000000000000000
1028226757110044676000000025928316762321686323100000020500000000000000BLIL.4005091219URA1-0000000000NDIWA BEAUTY TE00000000000000000000000000000000000000000000000000000000000000000
1028226757110044676000000026028146762397637417100000039359000000000000BLIL.4005055457BMFW-0000000000BOTHO JOHN     00000000000000000000000000000000000000000000000000000000000000000
1028226757110044676000000026128146762385483400100000038769000000000000BLIL.4003510394BMKS-0000000000OMOGOLO RESALE 00000000000000000000000000000000000000000000000000000000000000000
1028226757110044676000000026228456762685869326100000030000000000000000BLIL.4006838681MFDS-0000000000DEVON MARK RAUT00000000000000000000000000000000000000000000000000000000000000000
1028226757110044676000000026328566762357909319100000200500000000000000BLIL.4005183943URA1-0000000000BOITSHOKI NGONI00000000000000000000000000000000000000000000000000000000000000000
1028226757110044676000000026428456762657271278100000030000000000000000BLIL.4006778267MFDS-0000000000OPENSHAW INVEST00000000000000000000000000000000000000000000000000000000000000000
1028226757110044676000000026528186762029244225100000010100000000000000BLIL.4006549430BMFW-0000000000RUTH T SETABOLE00000000000000000000000000000000000000000000000000000000000000000
1028226757110044676000000026628236762682721149100000023940000000000000BLIL.4006120628BMFW-0000000000GOTHATAONE DINE00000000000000000000000000000000000000000000000000000000000000000
1028226757110044676000000026728186762596732547100000020000000000000000BLIL.4006573158MFRA-0000000000NCHIDZI D. MATH00000000000000000000000000000000000000000000000000000000000000000
1028226757110044676000000026828306762125435819100000023484000000000000BLIL.4004647353BMFW-0000000000DANIEL OLEBILE 00000000000000000000000000000000000000000000000000000000000000000
1028226757110044676000000026928286762362792535100000022852000000000000BLIL.4002499863BMFW-0000000000MAROTHODI AKANY00000000000000000000000000000000000000000000000000000000000000000
1028226757110044676000000027028146762320061188100000029400000000000000BLIL.0000552730BMFW-0000000000KEITSHENTSE LEB00000000000000000000000000000000000000000000000000000000000000000
1028226757110044676000000027128286762575391398100000021525000000000000BLIL.4004876994ULP1-0000000000GLORIA TAUETSIL00000000000000000000000000000000000000000000000000000000000000000
1028226757110044676000000027228166762526555919100000024900000000000000BLIL.4006729323BMFW-0000000000TSAONE BAATWENG00000000000000000000000000000000000000000000000000000000000000000
1028226757110044676000000027328316762514572636100000016100000000000000BLIL.4006434061BMFW-0000000000THUSO FLY      00000000000000000000000000000000000000000000000000000000000000000
1028226757110044676000000027428126762224409278100000021525000000000000BLIL.4005743139ULM5-0000000000EPHRAIM NTEBELE00000000000000000000000000000000000000000000000000000000000000000
1028226757110044676000000027528506762166930993100000023704000000000000BLIL.4004858500BMFW-0000000000ALFRED OAITSE K00000000000000000000000000000000000000000000000000000000000000000
1028226757110044676000000027628526762339475007100000028114000000000000BLIL.4005010895ULM5-0000000000GAOLATHE WANTLE00000000000000000000000000000000000000000000000000000000000000000
1028226757110044676000000027728166762062132180100000023219000000000000BLIL.4001563854BMFW-0000000000KGOMOTSO ODANAH00000000000000000000000000000000000000000000000000000000000000000
1028226757110044676000000027828236760720006126100000114108000000000000BLIL.4002334758BMFW-0000000000DAVID MTHETHELE00000000000000000000000000000000000000000000000000000000000000000
1028226757110044676000000027928556762278521276100000038034000000000000BLIL.4000574716BMFW-0000000000KAGISO MUTUKWA 00000000000000000000000000000000000000000000000000000000000000000
1028226757110044676000000028028306762327559938100000013976000000000000BLIL.4002412760URA1-0000000000THABISO MOTLAKA00000000000000000000000000000000000000000000000000000000000000000
1028226757110044676000000028128306762123249783100000055000000000000000BLIL.04004133649LORE0000000000TUMELO EDGAR MO00000000000000000000000000000000000000000000000000000000000000000
1028226757110044676000000028228146762132533193100000025300000000000000BLIL.4007266375BMFW-0000000000THAPELO TLHAKOD00000000000000000000000000000000000000000000000000000000000000000
1028226757110044676000000028328556762114543954100000029700000000000000BLIL.4007063454BMFW-0000000000JUDGE BROOKS MO00000000000000000000000000000000000000000000000000000000000000000
1028226757110044676000000028428236762630904755100000024465000000000000BLIL.4005780052BMFW-0000000000KETUMILE MONNAA00000000000000000000000000000000000000000000000000000000000000000
1028226757110044676000000028528286762384070448100000015100000000000000BLIL.4005326654BMFW-0000000000MMOLOKI KGOSIET00000000000000000000000000000000000000000000000000000000000000000
1028226757110044676000000028628526762227734010100000072082000000000000BLIL.4005798396PSTA-0000000000ERNEST BONI LET00000000000000000000000000000000000000000000000000000000000000000
1028226757110044676000000028728146762551021745100000054023000000000000BLIL.4004946654BMFW-0000000000MOTLHANKA OTSET00000000000000000000000000000000000000000000000000000000000000000
1028226757110044676000000028828286762234061795100000021069000000000000BLIL.4002907408BMFW-0000000000KABO GIDEON NDL00000000000000000000000000000000000000000000000000000000000000000
1028226757110044676000000028928236762299984586100000024918000000000000BLIL.4001721244URA1-0000000000THUTO MASOKO   00000000000000000000000000000000000000000000000000000000000000000
1028226757110044676000000029028236762096196425100000019912000000000000BLIL.4003722458BMFW-0000000000ONKARABILE MANC00000000000000000000000000000000000000000000000000000000000000000
1028226757110044676000000029128456762078028084100000034950000000000000BLIL.4004424193BMFW-0000000000NONOFO HARRY   00000000000000000000000000000000000000000000000000000000000000000
1028226757110044676000000029228286762274427337100000020500000000000000BLIL.4002577265URA1-0000000000DIMPHO NDADI   00000000000000000000000000000000000000000000000000000000000000000
1028226757110044676000000029328166762408148147100000013860000000000000BLIL.4005442674BMFW-0000000000KOBAMELO KGAME 00000000000000000000000000000000000000000000000000000000000000000
1028226757110044676000000029428556762357496100100000033550000000000000BLIL.4005910568URA1-0000000000MATLHOGONOLO TS00000000000000000000000000000000000000000000000000000000000000000
1028226757110044676000000029528186762475249415100000025725000000000000BLIL.4005997857BMFW-0000000000MAROPENG RANKWE00000000000000000000000000000000000000000000000000000000000000000
1028226757110044676000000029628306762498475790100000025800000000000000BLIL.4007311453BMFW-0000000000TSHOLOFELO GODI00000000000000000000000000000000000000000000000000000000000000000
1028226757110044676000000029728196762298883482100000035500000000000000BLIL.4005675146BMFW-0000000000GEORGE AGYEKUM-00000000000000000000000000000000000000000000000000000000000000000
1028226757110044676000000029828186762209988883100000150500000000000000BLIL.4006278348URA1-0000000000MELEKO MOREMI  00000000000000000000000000000000000000000000000000000000000000000
1028226757110044676000000029928196762086686890100000059142000000000000BLIL.4006239342PSWL-0000000000LEJANA CASSET M00000000000000000000000000000000000000000000000000000000000000000
1028226757110044676000000030028166762270920278100000047458000000000000BLIL.4004965963PSTA-0000000000MODISAOTSILE PH00000000000000000000000000000000000000000000000000000000000000000
1028226757110044676000000030128146762685780316100000021500000000000000BLIL.4006742369BMFW-0000000000KEOTSHEPHILE MA00000000000000000000000000000000000000000000000000000000000000000
1028226757110044676000000030228286762375667585100000038146000000000000BLIL.4004232881BMFW-0000000000NEO GOTSHWANAMA00000000000000000000000000000000000000000000000000000000000000000
1028226757110044676000000030328286762532456507100000024255000000000000BLIL.4005514920BMFW-0000000000GONNAMANG GASEK00000000000000000000000000000000000000000000000000000000000000000
1028226757110044676000000030428166762287396206100000046237000000000000BLIL.4000121082BMFW-0000000000TSHEPO TSHEKO  00000000000000000000000000000000000000000000000000000000000000000
1028226757110044676000000030528316762168956450100000022601000000000000BLIL.4004635293URA1-0000000000TSHOLOFELO BRID00000000000000000000000000000000000000000000000000000000000000000
1028226757110044676000000030628146762273513658100000200500000000000000BLIL.4006296677ULMG-0000000000MINKIE SEABELO 00000000000000000000000000000000000000000000000000000000000000000
1028226757110044676000000030728146762471636450100000101433000000000000BLIL.4005543371PSTA-0000000000VINCENT BIKIE M00000000000000000000000000000000000000000000000000000000000000000
1028226757110044676000000030828526762129888337100000026742000000000000BLIL.4003913235BMFW-0000000000NANCY MAIKUTLO 00000000000000000000000000000000000000000000000000000000000000000
1028226757110044676000000030928286762087010775100000059325000000000000BLIL.4005365472BMFW-0000000000MOOKETSI POANE 00000000000000000000000000000000000000000000000000000000000000000
1028226757110044676000000031028186762522053488100000012495000000000000BLIL.4006015534BMFW-0000000000MPHO TAHLA     00000000000000000000000000000000000000000000000000000000000000000
1028226757110044676000000031128286762379064175100000052500000000000000BLIL.4006512934MFDS-0000000000GODFREY JOHANNE00000000000000000000000000000000000000000000000000000000000000000
1028226757110044676000000031228186762061477347100000010000000000000000BLIL.4001784460ULM5-0000000000BARNEY OTTILIA 00000000000000000000000000000000000000000000000000000000000000000
1028226757110044676000000031328316762278433702100000024436000000000000BLIL.4006461389PSTA-0000000000BASIYI GALEBONW00000000000000000000000000000000000000000000000000000000000000000
1028226757110044676000000031428286762533982973100000039900000000000000BLIL.4005750079BMFW-0000000000SENWELO S M BOT00000000000000000000000000000000000000000000000000000000000000000
1028226757110044676000000031528556762725872031100000050000000000000000BLIL.4004034457URA1-0000000000BATISANI MOLULW00000000000000000000000000000000000000000000000000000000000000000
1028226757110044676000000031628146762074271372100000150000000000000000BLIL.4004544329URA1-0000000000SUMAYA KHAN    00000000000000000000000000000000000000000000000000000000000000000
1028226757110044676000000031728566762343812013100000053689000000000000BLIL.4006679889PSTA-0000000000THABANG IAN OLD00000000000000000000000000000000000000000000000000000000000000000
1028226757110044676000000031828536762315534091100000029415000000000000BLIL.4002613118BMFW-0000000000DITEBOGO MOTSHA00000000000000000000000000000000000000000000000000000000000000000
1028226757110044676000000031928286762087030343100000033075000000000000BLIL.4004079807ULMG-0000000000TEMO TEBOGO TOM00000000000000000000000000000000000000000000000000000000000000000
1028226757110044676000000032028146762146581584100000017357000000000000BLIL.4000387420BMFW-0000000000CECILIA BOOM   00000000000000000000000000000000000000000000000000000000000000000
1028226757110044676000000032128146762403925607100000024037000000000000BLIL.4004809470BMFW-0000000000LESEGO SHARON K00000000000000000000000000000000000000000000000000000000000000000
1028226757110044676000000032228456762455365249100000017991000000000000BLIL.4002358774BMFW-0000000000ANGELLINAH B J 00000000000000000000000000000000000000000000000000000000000000000
1028226757110044676000000032328316762134546483100000100000000000000000BLIL.4002807189ULMG-0000000000TSHEPANG MOTIME00000000000000000000000000000000000000000000000000000000000000000
1028226757110044676000000032428556762278778398100000010000000000000000BLIL.4002976314URA1-0000000000BOITEKO MANYIMA00000000000000000000000000000000000000000000000000000000000000000
1028226757110044676000000032528456762698960707100000025000000000000000BLIL.4006993518MFDS-0000000000BOEMO MAKGOLOKE00000000000000000000000000000000000000000000000000000000000000000
1028226757110044676000000032628186762140389570100000017259000000000000BLIL.4001912403BMFW-0000000000MONICA LEBALA  00000000000000000000000000000000000000000000000000000000000000000
1028226757110044676000000032728536762187426038100000056000000000000000BLIL.4006754209PSTA-0000000000WIDE WEB TOUCH 00000000000000000000000000000000000000000000000000000000000000000
1028226757110044676000000032828516762642976213100000013781000000000000BLIL.4004418754BMFW-0000000000PHENYO JOSEPH M00000000000000000000000000000000000000000000000000000000000000000
1028226757110044676000000032928546762691347796100000292820000000000000BLIL.0000562733URA1-0000000000ONTLAMETSE SEBO00000000000000000000000000000000000000000000000000000000000000000
1028226757110044676000000033028286762276557348100000023200000000000000BLIL.4006673029BMFW-0000000000JOSEPH PONASE M00000000000000000000000000000000000000000000000000000000000000000
1028226757110044676000000033128286762023414246100000030338000000000000BLIL.0000092643BMFW-0000000000MATSHIDISO MOSI00000000000000000000000000000000000000000000000000000000000000000
1028226757110044676000000033228546762499942657100000035500000000000000BLIL.4003525509ULM3-0000000000SIBONANI NYATHI00000000000000000000000000000000000000000000000000000000000000000
1028226757110044676000000033328536762315534091100000020500000000000000BLIL.4002613192ULP1-0000000000DITEBOGO MOTSHA00000000000000000000000000000000000000000000000000000000000000000
1028226757110044676000000033428146762430684656100000017420000000000000BLIL.4004080830BMFW-0000000000TUELO NATO     00000000000000000000000000000000000000000000000000000000000000000
1028226757110044676000000033528286762379064175100000036500000000000000BLIL.4006512332BMFW-0000000000GODFREY JOHANNE00000000000000000000000000000000000000000000000000000000000000000
1028226757110044676000000033628236762732070058100000012900000000000000BLIL.4006530182BMFW-0000000000BOKAMOSO MARITI00000000000000000000000000000000000000000000000000000000000000000
1028226757110044676000000033728176760714007627100000023363000000000000BLIL.4005783678PSTA-0000000000ARJUN PARAMESWA00000000000000000000000000000000000000000000000000000000000000000
1028226757110044676000000033828286762234059964100000018900000000000000BLIL.4006607593BMFW-0000000000CHIDZANI SMARTS00000000000000000000000000000000000000000000000000000000000000000
1028226757110044676000000033928196762399985244100000017943000000000000BLIL.4002815384ULM5-0000000000KEATLARETSE MAL00000000000000000000000000000000000000000000000000000000000000000
1028226757110044676000000034028526762297982201100000014928000000000000BLIL.4002346614BMFW-0000000000KABO JOROSI    00000000000000000000000000000000000000000000000000000000000000000
1028226757110044676000000034128306762268829044100000024500000000000000BLIL.4006686096BMFW-0000000000NEELANANG MABON00000000000000000000000000000000000000000000000000000000000000000
1028226757110044676000000034228316762321686323100000024500000000000000BLIL.04003706595LORE0000000000NDIWA BEAUTY TE00000000000000000000000000000000000000000000000000000000000000000
1028226757110044676000000034328186762331190447100000042921000000000000BLIL.4000464842BMFW-0000000000MAITUMELO PETSO00000000000000000000000000000000000000000000000000000000000000000
1028226757110044676000000034428146762437210339100000047405000000000000BLIL.4001365381BMFW-0000000000ITUMELENG SEITS00000000000000000000000000000000000000000000000000000000000000000
1028226757110044676000000034528306762735057300100000009500000000000000BLIL.4006711194BMFW-0000000000GAOBIDIWE KWALA00000000000000000000000000000000000000000000000000000000000000000
1028226757110044676000000034628286762476637974100000042500000000000000BLIL.4006419528MFDS-0000000000LEUNGO LAME MOG00000000000000000000000000000000000000000000000000000000000000000
1028226757110044676000000034728126762399315342100000012200000000000000BLIL.4006086565BMFW-0000000000KUSHATHA CHILIW00000000000000000000000000000000000000000000000000000000000000000
1028226757110044676000000034828516762741166301100000022500000000000000BLIL.4006862189MFRA-0000000000ORATILE THANDI 00000000000000000000000000000000000000000000000000000000000000000
1028226757110044676000000034928236762088400389100000026447000000000000BLIL.4002616475BMFW-0000000000ODUMETSE MODIKW00000000000000000000000000000000000000000000000000000000000000000
1028226757110044676000000035028286762088027084100000054732000000000000BLIL.4004179231BMKS-0000000000MABEDI RANNA   00000000000000000000000000000000000000000000000000000000000000000
1028226757110044676000000035128826762493928835100000188308000000000000BLIL.4004468092ULMG-0000000000DORIS MALEBOGO 00000000000000000000000000000000000000000000000000000000000000000
1028226757110044676000000035228286762087018779100000033824000000000000BLIL.4000584086BMFW-0000000000BONNY BONANG SE00000000000000000000000000000000000000000000000000000000000000000
1028226757110044676000000035328556762731701753100000061500000000000000BLIL.4006906983BMFW-0000000000KAGISO RUBEN MO00000000000000000000000000000000000000000000000000000000000000000
1028226757110044676000000035428246762702433202100000008900000000000000BLIL.4006526046BMFW-0000000000BARULAGANYE GEO00000000000000000000000000000000000000000000000000000000000000000
1028226757110044676000000035528316762121427290100000027700000000000000BLIL.4006853360BMFW-0000000000ONE GAME MOGOTS00000000000000000000000000000000000000000000000000000000000000000
1028226757110044676000000035628556762323717473100000048400000000000000BLIL.4004816158MFDS-0000000000KEGAISITSE FELI00000000000000000000000000000000000000000000000000000000000000000
1028226757110044676000000035728456762189301692100000041189000000000000BLIL.4007094899PSTA-0000000000HILDAH MATOME  00000000000000000000000000000000000000000000000000000000000000000
1028226757110044676000000035828306762252887503100000030000000000000000BLIL.4006676661MFDS-0000000000KEAMOGETSE BASE00000000000000000000000000000000000000000000000000000000000000000
1028226757110044676000000035928896762666692829100000030000000000000000BLIL.4007025763MFDS-0000000000CHARITY BOTHO T00000000000000000000000000000000000000000000000000000000000000000
1028226757110044676000000036028236762749831534100000027000000000000000BLIL.4006911384MFDS-0000000000KEOBOKILE ELISH00000000000000000000000000000000000000000000000000000000000000000
1028226757110044676000000036128186762084791401100000150000000000000000BLIL.4007098738MFDS-0000000000THATO LEKONE   00000000000000000000000000000000000000000000000000000000000000000
1028226757110044676000000036228236762685419080100000021525000000000000BLIL.4005780379ULP1-0000000000MALEBOGO MONNAK00000000000000000000000000000000000000000000000000000000000000000
1028226757110044676000000036328236762407586273100000022500000000000000BLIL.4006890908MFDS-0000000000KESEGO LOSO    00000000000000000000000000000000000000000000000000000000000000000
1028226757110044676000000036428236762572256553100000022500000000000000BLIL.4006928046MFDS-0000000000REETSANG OKOCHA00000000000000000000000000000000000000000000000000000000000000000
1028226757110044676000000036528286762183492851100000023901000000000000BLIL.4000225834ULM5-0000000000OGOMODITSE BARE00000000000000000000000000000000000000000000000000000000000000000
1028226757110044676000000036628606762413355886100000026775000000000000BLIL.4005620361ULM3-0000000000ISAAC SAUL     00000000000000000000000000000000000000000000000000000000000000000
1028226757110044676000000036728186762266769127100000035863000000000000BLIL.4000613900BMFW-0000000000LETSWELETSE JUL00000000000000000000000000000000000000000000000000000000000000000
1028226757110044676000000036828236762716072773100000025400000000000000BLIL.4006315263BMFW-0000000000THELMA RICE    00000000000000000000000000000000000000000000000000000000000000000
1028226757110044676000000036928526762768932967100000042909000000000000BLIL.4001758368BMFW-0000000000SHANGANANI AMOS00000000000000000000000000000000000000000000000000000000000000000
1028226757110044676000000037028306762327297835100000029520000000000000BLIL.4003168763ULP1-0000000000MOSIANE MOSIANE00000000000000000000000000000000000000000000000000000000000000000
1028226757110044676000000037128286762389410433100000027200000000000000BLIL.4005822228BMFW-0000000000DINEO MOSARWA  00000000000000000000000000000000000000000000000000000000000000000
1028226757110044676000000037228286762251934082100000100000000000000000BLIL.4006438780MFDS-0000000000LAMBOLY GUY NOE00000000000000000000000000000000000000000000000000000000000000000
1028226757110044676000000037328236762412576839100000016800000000000000BLIL.4006765999BMFW-0000000000KEMETHA MOALOSI00000000000000000000000000000000000000000000000000000000000000000
1028226757110044676000000037428506762708177870100000020500000000000000BLIL.4006064787BMFW-0000000000SINAH THOMAS   00000000000000000000000000000000000000000000000000000000000000000
1028226757110044676000000037528456762368014991100000043100000000000000BLIL.4007107753BMFW-0000000000SIMON CHIBAYA  00000000000000000000000000000000000000000000000000000000000000000
1028226757110044676000000037628306762152506857100000028204000000000000BLIL.4000475419BMFW-0000000000SAKAREA RAMOLEF00000000000000000000000000000000000000000000000000000000000000000
1028226757110044676000000037728236762164110828100000028050000000000000BLIL.4005824725ULP1-0000000000KAEBA HAMU     00000000000000000000000000000000000000000000000000000000000000000
1028226757110044676000000037828186762470009244100000019200000000000000BLIL.4005440795BMFW-0000000000PETUNIA WILLIAM00000000000000000000000000000000000000000000000000000000000000000
1028226757110044676000000037928246762214760185100000034848000000000000BLIL.4003078447BMFW-0000000000BARULAGANYE POL00000000000000000000000000000000000000000000000000000000000000000
1028226757110044676000000038028166762278324612100000033866000000000000BLIL.4001892269BMFW-0000000000ENOCK DEE NYAMB00000000000000000000000000000000000000000000000000000000000000000
1028226757110044676000000038128146760711129771100000023153000000000000BLIL.4002722832URA1-0000000000CHENDZIMU SABAT00000000000000000000000000000000000000000000000000000000000000000
1028226757110044676000000038228126762473463637100000027800000000000000BLIL.4006782036BMFW-0000000000KETLHALEFILE MA00000000000000000000000000000000000000000000000000000000000000000
1028226757110044676000000038328456762558043974100000013100000000000000BLIL.4006329383BMFW-0000000000BOTILO THATO TS00000000000000000000000000000000000000000000000000000000000000000
1028226757110044676000000038428186762534777331100000018800000000000000BLIL.4006775887BMFW-0000000000KEDIBONYE WAITS00000000000000000000000000000000000000000000000000000000000000000
1028226757110044676000000038528286762372789100100000052500000000000000BLIL.4007110893MFRA-0000000000THUSO HETANANG 00000000000000000000000000000000000000000000000000000000000000000
1028226757110044676000000038628286762087831642100000048916000000000000BLIL.0000640494BMFW-0000000000MOGOMOTSI DANSW00000000000000000000000000000000000000000000000000000000000000000
1028226757110044676000000038728186762266769127100000026164000000000000BLIL.4000612695URA1-0000000000LETSWELETSE JUL00000000000000000000000000000000000000000000000000000000000000000
1028226757110044676000000038828286762086932087100000049689000000000000BLIL.4001594087BMKS-0000000000THEO BOGATSU   00000000000000000000000000000000000000000000000000000000000000000
1028226757110044676000000038928506762260723319100000019500000000000000BLIL.4006317401BMFW-0000000000OAKANYE MOLEELE00000000000000000000000000000000000000000000000000000000000000000
1028226757110044676000000039028286762113782610100000025132000000000000BLIL.4003749846BMK1-0000000000DIMAKATSO GOPAN00000000000000000000000000000000000000000000000000000000000000000
1028226757110044676000000039128146762194787936100000067317000000000000BLIL.4004865026PSTA-0000000000JOY OKEDI KARAB00000000000000000000000000000000000000000000000000000000000000000
1028226757110044676000000039228286762416784090100000036905000000000000BLIL.4004031912ULM3-0000000000MZWANDILE KAIZE00000000000000000000000000000000000000000000000000000000000000000
1028226757110044676000000039328236762215361619100000019700000000000000BLIL.4006922163BMFW-0000000000TSHEPO MATHUMO 00000000000000000000000000000000000000000000000000000000000000000
1028226757110044676000000039428146762535293922100000053571000000000000BLIL.4007082292PSTA-0000000000OLGA THUTO DUDU00000000000000000000000000000000000000000000000000000000000000000
1028226757110044676000000039528286762194831022100000053339000000000000BLIL.4004839801PSTA-0000000000THATO KITSO MAI00000000000000000000000000000000000000000000000000000000000000000
1028226757110044676000000039628186762367294338100000014500000000000000BLIL.4006409567BMFW-0000000000PHATSIMO KEMISO00000000000000000000000000000000000000000000000000000000000000000
1028226757110044676000000039728546762299211286100000355199000000000000BLIL.0000808559URA1-0000000000LETSOGILE M MOT00000000000000000000000000000000000000000000000000000000000000000
1028226757110044676000000039828286762190806590100000030387000000000000BLIL.4001799609BMFW-0000000000NEELO OTAA RANN00000000000000000000000000000000000000000000000000000000000000000
1028226757110044676000000039928166762661402322100000050500000000000000BLIL.4005963414ULP1-0000000000MORONGA SHOTE  00000000000000000000000000000000000000000000000000000000000000000
1028226757110044676000000040028286762113264642100000024918000000000000BLIL.4001524125ULM5-0000000000ONALENNA MAENGE00000000000000000000000000000000000000000000000000000000000000000
1028226757110044676000000040128526762362175434100000024068000000000000BLIL.4001493225BMFW-0000000000MOTSWASELE NGWA00000000000000000000000000000000000000000000000000000000000000000
1028226757110044676000000040228166762219593888100000098000000000000000BLIL.04000000452PPLC0000000000BRIDGET POPPY O00000000000000000000000000000000000000000000000000000000000000000
1028226757110044676000000040328146762222708359100000031643000000000000BLIL.4004379031BMFW-0000000000MALEBOGO RANKU 00000000000000000000000000000000000000000000000000000000000000000
1028226757110044676000000040428286762427105532100000010710000000000000BLIL.4005998811BMFW-0000000000THATAYAONE MONT00000000000000000000000000000000000000000000000000000000000000000
1028226757110044676000000040528286762234528646100000032500000000000000BLIL.4006851465MFRA-0000000000ABEL KOOAGILE K00000000000000000000000000000000000000000000000000000000000000000
1028226757110044676000000040628286762113782735100000025500000000000000BLIL.4003204721ULP1-0000000000GOITSEONE HANDL00000000000000000000000000000000000000000000000000000000000000000
1028226757110044676000000040728146762537284648100000024034000000000000BLIL.4004967884BMFW-0000000000OBED POLOKO    00000000000000000000000000000000000000000000000000000000000000000
1028226757110044676000000040828126762262872172100000033000000000000000BLIL.4005932304ULP1-0000000000OMPHEMETSE I BA00000000000000000000000000000000000000000000000000000000000000000
1028226757110044676000000040928286762086533653100000067814000000000000BLIL.4005043737PSTA-0000000000BOITUMELO TABOK00000000000000000000000000000000000000000000000000000000000000000
1028226757110044676000000041028236762367620377100000016700000000000000BLIL.4005792714BMFW-0000000000KEITIRETSE MAIT00000000000000000000000000000000000000000000000000000000000000000
1028226757110044676000000041128286762575391398100000006174000000000000BLIL.4004876863BMFW-0000000000GLORIA TAUETSIL00000000000000000000000000000000000000000000000000000000000000000
1028226757110044676000000041228456762013529287100000202500000000000000BLIL.4006335366MFRA-0000000000DIMPHO KEITSENG00000000000000000000000000000000000000000000000000000000000000000
1028226757110044676000000041328546762062086098100000209157000000000000BLIL.4006371128PSWL-0000000000AGNES TSHOLOFEL00000000000000000000000000000000000000000000000000000000000000000
1028226757110044676000000041428166762316934406100000086194000000000000BLIL.4006857869PSTA-0000000000NTOKOZO KGOMOTS00000000000000000000000000000000000000000000000000000000000000000
1028226757110044676000000041528146762181016885100000170740000000000000BLIL.4005653245PSTA-0000000000TAWANDA TOGARA 00000000000000000000000000000000000000000000000000000000000000000
1028226757110044676000000041628546762159443226100000234459000000000000BLIL.4006273843PSWL-0000000000MOSETLHO KENAMI00000000000000000000000000000000000000000000000000000000000000000
1028226757110044676000000041728146762059253973100000059100000000000000BLIL.4006752388BMFW-0000000000MOSHE MABIKWA  00000000000000000000000000000000000000000000000000000000000000000
1028226757110044676000000041828236762630904755100000053025000000000000BLIL.4005780298ULP1-0000000000KETUMILE MONNAA00000000000000000000000000000000000000000000000000000000000000000
1028226757110044676000000041928286762126678103100000039050000000000000BLIL.4005617043ULM5-0000000000ADELAIDE BOKAMO00000000000000000000000000000000000000000000000000000000000000000
1028226757110044676000000042028506762697037515100000012300000000000000BLIL.4007215926BMFW-0000000000KEBADIRILE BUZW00000000000000000000000000000000000000000000000000000000000000000
1028226757110044676000000042128186757151201011100000034729000000000000BLIL.4002737990URA1-0000000000MARTHA LEKONE M00000000000000000000000000000000000000000000000000000000000000000
1028226757110044676000000042228166757131140073100000025329000000000000BLIL.0000318942BMFW-0000000000SERAKE SEBOKO  00000000000000000000000000000000000000000000000000000000000000000
1028226757110044676000000042328306762074734239100000015813000000000000BLIL.0000872601BMFW-0000000000MOTHIBEDI KEMOK00000000000000000000000000000000000000000000000000000000000000000
1028226757110044676000000042428826762561665989100000050000000000000000BLIL.4006344177URA1-0000000000ANDREW LELAKA  00000000000000000000000000000000000000000000000000000000000000000
1028226757110044676000000042528186762036894998100000022500000000000000BLIL.4006610552MFDS-0000000000NLAKIDZI BEJI  00000000000000000000000000000000000000000000000000000000000000000
1028226757110044676000000042628186762351379279100000020265000000000000BLIL.4005341634BMFW-0000000000CHAZHA TAMBULA 00000000000000000000000000000000000000000000000000000000000000000
1028226757110044676000000042728286762090970792100000053906000000000000BLIL.4002851934URA1-0000000000RESEGO MORAKANY00000000000000000000000000000000000000000000000000000000000000000
1028226757110044676000000042828146762176074971100000022500000000000000BLIL.4007102478MFDS-0000000000GOBOTSWANG ATSI00000000000000000000000000000000000000000000000000000000000000000
1028226757110044676000000042928286762372238769100000037740000000000000BLIL.4003469820BMFW-0000000000KEBAABETSWE A K00000000000000000000000000000000000000000000000000000000000000000
1028226757110044676000000043028286762095764299100000010500000000000000BLIL.0000609218URA1-0000000000OIKANYENG TLALA00000000000000000000000000000000000000000000000000000000000000000
1028226757110044676000000043128286762130616644100000021190000000000000BLIL.4000425773BMFW-0000000000BAME DIKGANG   00000000000000000000000000000000000000000000000000000000000000000
1028226757110044676000000043228306762176770735100000030500000000000000BLIL.4005586622ULM5-0000000000KEITHENG METHOL00000000000000000000000000000000000000000000000000000000000000000
1028226757110044676000000043328146762236276558100000066550000000000000BLIL.4003428212URA1-0000000000KEATS RAMSDEN  00000000000000000000000000000000000000000000000000000000000000000
1028226757110044676000000043428186762247196753100000018522000000000000BLIL.4005037762BMFW-0000000000PULENG THANDIE 00000000000000000000000000000000000000000000000000000000000000000
1028226757110044676000000043528286762172586459100000022550000000000000BLIL.4005638045ULP1-0000000000ARONA PHOLOBA  00000000000000000000000000000000000000000000000000000000000000000
1028226757110044676000000043628556762560082986100000013700000000000000BLIL.4006926581BMFW-0000000000IKETLEETSO KELA00000000000000000000000000000000000000000000000000000000000000000
1028226757110044676000000043728286762150235010100000027459000000000000BLIL.4000050693URA1-0000000000NONDUMISO NTULI00000000000000000000000000000000000000000000000000000000000000000
1028226757110044676000000043828236762675988889100000046100000000000000BLIL.4007112730BMFW-0000000000REBECCA SLOW CH00000000000000000000000000000000000000000000000000000000000000000
1028226757110044676000000043928286762086991265100000076271000000000000BLIL.4005780557PSTA-0000000000LUCAS TEKO MOSA00000000000000000000000000000000000000000000000000000000000000000
1028226757110044676000000044028526762086964246100000026500000000000000BLIL.4007167086BMFW-0000000000SIKALAME MADISE00000000000000000000000000000000000000000000000000000000000000000
1028226757110044676000000044128306762123249783100000036905000000000000BLIL.4004133623ULMG-0000000000TUMELO EDGAR FA00000000000000000000000000000000000000000000000000000000000000000
1028226757110044676000000044228516762762115717100000022500000000000000BLIL.4007292671MFDS-0000000000RUTH TLAMELO MO00000000000000000000000000000000000000000000000000000000000000000
1028226757110044676000000044328146762715749753100000027100000000000000BLIL.4006962424BMFW-0000000000EZEKIEL METLHA 00000000000000000000000000000000000000000000000000000000000000000
1028226757110044676000000044428186762014838695100000016100000000000000BLIL.4005409836BMFW-0000000000MAGGIE SIMANYAN00000000000000000000000000000000000000000000000000000000000000000
1028226757110044676000000044528186762029244225100000008200000000000000BLIL.4006550390BMFW-0000000000THATAYAONE SETA00000000000000000000000000000000000000000000000000000000000000000
1028226757110044676000000044628286762234689315100000052500000000000000BLIL.4006672285MFDS-0000000000TALITA LUDO KEO00000000000000000000000000000000000000000000000000000000000000000
1028226757110044676000000044728286762188435880100000019796000000000000BLIL.4002996637BMFW-0000000000MASEGO DOREEN M00000000000000000000000000000000000000000000000000000000000000000
1028226757110044676000000044828146762268633114100000015196000000000000BLIL.4002133253BMFW-0000000000LOETO BANYATSI 00000000000000000000000000000000000000000000000000000000000000000
1028226757110044676000000044928186762144984029100000017480000000000000BLIL.4002825141BMFW-0000000000GAOLATHE LOPSON00000000000000000000000000000000000000000000000000000000000000000
1028226757110044676000000045028306762415842972100000023963000000000000BLIL.4003714693BMFW-0000000000KARABO STICK   00000000000000000000000000000000000000000000000000000000000000000
1028226757110044676000000045128146762217820415100000037275000000000000BLIL.4004942278URA1-0000000000MATSAPA MATSAPA00000000000000000000000000000000000000000000000000000000000000000
1028226757110044676000000045228166757131141146100000173288000000000000BLIL.4006866002PSWL-0000000000REBA PULANE MAT00000000000000000000000000000000000000000000000000000000000000000
1028226757110044676000000045328286762227849421100000023300000000000000BLIL.4005924028BMFW-0000000000METLHA MANGWANE00000000000000000000000000000000000000000000000000000000000000000
1028226757110044676000000045428236762686758627100000032500000000000000BLIL.4006687995MFDS-0000000000FLORIA MOSETSAN00000000000000000000000000000000000000000000000000000000000000000
1028226757110044676000000045528286762237885910100000048702000000000000BLIL.4006025862PSTA-0000000000REETSANG KENALE00000000000000000000000000000000000000000000000000000000000000000
1028226757110044676000000045628506762259633826100000100000000000000000BLIL.4006522440MFRA-0000000000GONYATSWANG BAI00000000000000000000000000000000000000000000000000000000000000000
1028226757110044676000000045728286762113782735100000055703000000000000BLIL.4006275976PSTA-0000000000GOITSEONE HANDL00000000000000000000000000000000000000000000000000000000000000000
1028226757110044676000000045828306762655010850100000012180000000000000BLIL.4005209109BMFW-0000000000LINDIE ESTERHUI00000000000000000000000000000000000000000000000000000000000000000
1028226757110044676000000045928826762399258047100000031300000000000000BLIL.4006666448BMFW-0000000000RAPELANG NTLOYA00000000000000000000000000000000000000000000000000000000000000000
1028226757110044676000000046028456762259614412100000042465000000000000BLIL.4003276287BMFW-0000000000MONAMETSI RICHS00000000000000000000000000000000000000000000000000000000000000000
1028226757110044676000000046128456762538656284100000010920000000000000BLIL.4005982480BMFW-0000000000THABILE MOTLHAG00000000000000000000000000000000000000000000000000000000000000000
1028226757110044676000000046228146762623633551100000013129000000000000BLIL.4001530768BMFW-0000000000KEFILWE MOTLHAO00000000000000000000000000000000000000000000000000000000000000000
1028226757110044676000000046328236762743576798100000014900000000000000BLIL.4006709034BMFW-0000000000OPELO MOSHETI  00000000000000000000000000000000000000000000000000000000000000000
1028226757110044676000000046428526762273222704100000024900000000000000BLIL.4006874320BMFW-0000000000ELIAS MATLHOGON00000000000000000000000000000000000000000000000000000000000000000
1028226757110044676000000046528186757150086349100000066900000000000000BLIL.4007078952BMFW-0000000000MAUNGO VICTORIA00000000000000000000000000000000000000000000000000000000000000000
1028226757110044676000000046628286762284707050100000015500000000000000BLIL.4006527783BMFW-0000000000JOHANNES LETSEB00000000000000000000000000000000000000000000000000000000000000000
1028226757110044676000000046728456762383326230100000015766000000000000BLIL.4004615019BMFW-0000000000ABEL MAITSHOTLO00000000000000000000000000000000000000000000000000000000000000000
1028226757110044676000000046828126762312727699100000033076000000000000BLIL.4004198809BMFW-0000000000GOMOLEMO LADY J00000000000000000000000000000000000000000000000000000000000000000
1028226757110044676000000046928556762644707335100000018900000000000000BLIL.4006889048BMFW-0000000000EFA CHAMAE     00000000000000000000000000000000000000000000000000000000000000000
1028226757110044676000000047028186762014690946100000022100000000000000BLIL.4005743333BMFW-0000000000SETHI MASOLE   00000000000000000000000000000000000000000000000000000000000000000
1028226757110044676000000047128526762540596139100000046222000000000000BLIL.4005295306PSTA-0000000000NINA THERESE FO00000000000000000000000000000000000000000000000000000000000000000
1028226757110044676000000047228146762273786213100000056000000000000000BLIL.4006954415BMFW-0000000000ONKUTLWILE EVA 00000000000000000000000000000000000000000000000000000000000000000
1028226757110044676000000047328526762540596139100000132879000000000000BLIL.4004990069PSTA-0000000000EDMUND BAYEN BA00000000000000000000000000000000000000000000000000000000000000000
1028226757110044676000000047428606762306568306100000024634000000000000BLIL.4000648404BMFW-0000000000MAREA CAMM     00000000000000000000000000000000000000000000000000000000000000000
1028226757110044676000000047528166762405491507100000033550000000000000BLIL.4005526569ULM3-0000000000KGALALELO MADIK00000000000000000000000000000000000000000000000000000000000000000
1028226757110044676000000047628286762337950895100000050657000000000000BLIL.0000621169BMFW-0000000000KEITUMETSE MARC00000000000000000000000000000000000000000000000000000000000000000
1028226757110044676000000047728286762235879709100000021700000000000000BLIL.4007236318BMFW-0000000000OARABILE MOATSH00000000000000000000000000000000000000000000000000000000000000000
1028226757110044676000000047828186762210704509100000012155000000000000BLIL.4003379114URA1-0000000000GABANTHONE MOTH00000000000000000000000000000000000000000000000000000000000000000
1028226757110044676000000047928176762239787007100000030000000000000000BLIL.4006924767MFDS-0000000000RAMMIDI MBENYAN00000000000000000000000000000000000000000000000000000000000000000
1028226757110044676000000048028236762656885898100000025600000000000000BLIL.4006980452BMFW-0000000000BANKGAISITSE LE00000000000000000000000000000000000000000000000000000000000000000
1028226757110044676000000048128166762249071581100000041677000000000000BLIL.4003783868BMFW-0000000000REBECCA PHURALL00000000000000000000000000000000000000000000000000000000000000000
1028226757110044676000000048228146762458896936100000057217000000000000BLIL.4006448563PSWL-0000000000THATO MMOPI    00000000000000000000000000000000000000000000000000000000000000000
1028226757110044676000000048328456762491234432100000014600000000000000BLIL.4006922147BMFW-0000000000OPELO NKWE     00000000000000000000000000000000000000000000000000000000000000000
1028226757110044676000000048428286762274786585100000010500000000000000BLIL.4000871772URA1-0000000000TSHIAMO WAME DI00000000000000000000000000000000000000000000000000000000000000000
1028226757110044676000000048528286762234059964100000052500000000000000BLIL.4006032786ULMG-0000000000CHIDZANI SMARTS00000000000000000000000000000000000000000000000000000000000000000
1028226757110044676000000048628556762438317514100000010000000000000000BLIL.4003442589URA1-0000000000KABO GALESEKEGW00000000000000000000000000000000000000000000000000000000000000000
1028226757110044676000000048728236762416135649100000025000000000000000BLIL.4006660507MFDS-0000000000DINYANDO BONNY 00000000000000000000000000000000000000000000000000000000000000000
1028226757110044676000000048828186762690542967100000010000000000000000BLIL.4006621535BMFW-0000000000TEBOGO MUKHATAZ00000000000000000000000000000000000000000000000000000000000000000
1028226757110044676000000048928186762464354895100000017600000000000000BLIL.4006397845BMFW-0000000000DAVID BOTSHELO 00000000000000000000000000000000000000000000000000000000000000000
1028226757110044676000000049028456762136228394100000069150000000000000BLIL.4002574788BMKS-0000000000BOTSHELO MASHAB00000000000000000000000000000000000000000000000000000000000000000
1028226757110044676000000049128286762113781117100000029482000000000000BLIL.0000629141BMFW-0000000000GORATA TLHALE D00000000000000000000000000000000000000000000000000000000000000000
1028226757110044676000000049228286762365859647100000024646000000000000BLIL.4001443084BMFW-0000000000TUELO MODIKANA 00000000000000000000000000000000000000000000000000000000000000000
1028226757110044676000000049328186762235860401100000013100000000000000BLIL.4006428606BMFW-0000000000EDIRETSE ALOGEN00000000000000000000000000000000000000000000000000000000000000000
1028226757110044676000000049428286762416784090100000036905000000000000BLIL.4004030259ULM3-0000000000MZWANDILE KAIZE00000000000000000000000000000000000000000000000000000000000000000
1028226757110044676000000049528286762276564666100000036594000000000000BLIL.4004046591BMKS-0000000000SALOME GAOLEKWE00000000000000000000000000000000000000000000000000000000000000000
1028226757110044676000000049628146762371276182100000014224000000000000BLIL.4002455689BMFW-0000000000LERATO HOPE NTH00000000000000000000000000000000000000000000000000000000000000000
1028226757110044676000000049728516762448353392100000031753000000000000BLIL.4004049573BMFW-0000000000NOMSA FUTURE LE00000000000000000000000000000000000000000000000000000000000000000
1028226757110044676000000049828236762413258155100000042500000000000000BLIL.4006708397MFDS-0000000000ORUMILWE NKULA 00000000000000000000000000000000000000000000000000000000000000000
1028226757110044676000000049928306762209707415100000025000000000000000BLIL.4006677382MFDS-0000000000MOSHE MOKGADI  00000000000000000000000000000000000000000000000000000000000000000
1028226757110044676000000050028146762289882518100000011687000000000000BLIL.4004150883BMFW-0000000000TEBOGO MOKWENA 00000000000000000000000000000000000000000000000000000000000000000
1028226757110044676000000050128286762089770038100000030535000000000000BLIL.0000198146BMFW-0000000000RUTH KEDIKILWE 00000000000000000000000000000000000000000000000000000000000000000
1028226757110044676000000050228286762484274437100000020000000000000000BLIL.4004242355URA1-0000000000TSHEPANG OLERAT00000000000000000000000000000000000000000000000000000000000000000
1028226757110044676000000050328126762228930790100000037335000000000000BLIL.4002013726URA1-0000000000WINNIE GATWENG 00000000000000000000000000000000000000000000000000000000000000000
1028226757110044676000000050428286762086971762100000029520000000000000BLIL.4003339413ULM3-0000000000BAATILE M MASIE00000000000000000000000000000000000000000000000000000000000000000
1028226757110044676000000050528146762261679149100000020600000000000000BLIL.4006436186BMFW-0000000000KAGISO MOOKA   00000000000000000000000000000000000000000000000000000000000000000
1028226757110044676000000050628556762304198775100000015000000000000000BLIL.4005317518BMFW-0000000000THABANG O AURTH00000000000000000000000000000000000000000000000000000000000000000
1028226757110044676000000050728236762682736445100000022800000000000000BLIL.4006120254BMFW-0000000000OTHUSITSE SAMOS00000000000000000000000000000000000000000000000000000000000000000
1028226757110044676000000050828536762232145799100000032560000000000000BLIL.4003704349BMFW-0000000000MMAMONWANA BOSE00000000000000000000000000000000000000000000000000000000000000000
1028226757110044676000000050928536762232301672100000032298000000000000BLIL.4003702151BMFW-0000000000MALEBOGO KEBALE00000000000000000000000000000000000000000000000000000000000000000
1028226757110044676000000051028146762358454090100000022711000000000000BLIL.4004625703BMFW-0000000000TLHOKOMELANG LE00000000000000000000000000000000000000000000000000000000000000000
1028226757110044676000000051128826762690626828100000071665000000000000BLIL.4006958613PSTA-0000000000LESEGO HYSSON N00000000000000000000000000000000000000000000000000000000000000000
1028226757110044676000000051228286762379062723100000016000000000000000BLIL.4005920561BMFW-0000000000TAYABANG FANYAN00000000000000000000000000000000000000000000000000000000000000000
1028226757110044676000000051328526762165568696100000034759000000000000BLIL.4001641117BMFW-0000000000THABO GADZANI M00000000000000000000000000000000000000000000000000000000000000000
1028226757110044676000000051428286762428504832100000038418000000000000BLIL.4005823583PSTA-0000000000BONNO KALULUKA 00000000000000000000000000000000000000000000000000000000000000000
1028226757110044676000000051528176762482801092100000029505000000000000BLIL.4005555342BMFW-0000000000OTSILE PATRICK 00000000000000000000000000000000000000000000000000000000000000000
1028226757110044676000000051628456762661916290100000010000000000000000BLIL.4005937930BMFW-0000000000MERAPELO NGONGO00000000000000000000000000000000000000000000000000000000000000000
1028226757110044676000000051728176762328654307100000030000000000000000BLIL.4006783692MFDS-0000000000SAMUEL WILSON K00000000000000000000000000000000000000000000000000000000000000000
1028226757110044676000000051828526762369687804100000011713000000000000BLIL.4002499708ULM5-0000000000KEOTSHEPILE MME00000000000000000000000000000000000000000000000000000000000000000
1028226757110044676000000051928516762399195637100000014663000000000000BLIL.4004542864BMFW-0000000000MUFHWANZALA MBE00000000000000000000000000000000000000000000000000000000000000000
1028226757110044676000000052028236762504231888100000017905000000000000BLIL.4005412730BMFW-0000000000MOTSEOTSILE G. 00000000000000000000000000000000000000000000000000000000000000000
1028226757110044676000000052128306762183960155100000049833000000000000BLIL.4005048779BMFW-0000000000GOGAKAONE DIBOS00000000000000000000000000000000000000000000000000000000000000000
1028226757110044676000000052228456762264027113100000028300000000000000BLIL.4006438887BMFW-0000000000MOEMEDI TESELET00000000000000000000000000000000000000000000000000000000000000000
1028226757110044676000000052328526762280018419100000028444000000000000BLIL.4004337922BMFW-0000000000TSHEPANG GLORIA00000000000000000000000000000000000000000000000000000000000000000
1028226757110044676000000052428286762086998534100000025500000000000000BLIL.4005104084ULM3-0000000000FIDEL MPOLOKA  00000000000000000000000000000000000000000000000000000000000000000
1028226757110044676000000052528566762323937964100000008000000000000000BLIL.4005210700BMFW-0000000000SEGOMOTSO DIKAG00000000000000000000000000000000000000000000000000000000000000000
1028226757110044676000000052628146762494570445100000052442000000000000BLIL.4003642884BMFW-0000000000WILLIAM SEKGATS00000000000000000000000000000000000000000000000000000000000000000
1028226757110044676000000052728146762276442086100000023901000000000000BLIL.4000921038ULP1-0000000000NTONA RICHARD R00000000000000000000000000000000000000000000000000000000000000000
1028226757110044676000000052828896762699313418100000026691000000000000BLIL.4005797510PSTA-0000000000GERTRUDE MUNGIR00000000000000000000000000000000000000000000000000000000000000000
1028226757110044676000000052928456762144796359100000082730000000000000BLIL.4004812633BPSTA0000000000IBENI SENEWA PH00000000000000000000000000000000000000000000000000000000000000000
1028226757110044676000000053028526762234628884100000021525000000000000BLIL.4005493277BMFW-0000000000LESEGO KELERILE00000000000000000000000000000000000000000000000000000000000000000
1028226757110044676000000053128186762024863997100000067216000000000000BLIL.4003377691URA1-0000000000WASHINGTON TSHO00000000000000000000000000000000000000000000000000000000000000000
1028226757110044676000000053228186762107720113100000027286000000000000BLIL.4003881290URA1-0000000000KEMISO NNANDZWA00000000000000000000000000000000000000000000000000000000000000000
1028226757110044676000000053328286762502365910100000040005000000000000BLIL.4005082589BMFW-0000000000KAGISO RAYMOND 00000000000000000000000000000000000000000000000000000000000000000
1028226757110044676000000053428186762282654790100000017943000000000000BLIL.4003406010ULM5-0000000000LAPOLOGANG GONT00000000000000000000000000000000000000000000000000000000000000000
1028226757110044676000000053528236762699282192100000018375000000000000BLIL.4006119344BMFW-0000000000ONALETHATA KEAB00000000000000000000000000000000000000000000000000000000000000000
1028226757110044676000000053628286762104960168100000030000000000000000BLIL.0000048539URA1-0000000000PHENYO WETSHOOT00000000000000000000000000000000000000000000000000000000000000000
1028226757110044676000000053728286762727316532100000067509000000000000BLIL.4005897928PSTA-0000000000NAMIE MODIRI   00000000000000000000000000000000000000000000000000000000000000000
1028226757110044676000000053828286762312866794100000107625000000000000BLIL.4006275146MFDS-0000000000KATLEGO THUTO  00000000000000000000000000000000000000000000000000000000000000000
1028226757110044676000000053928286762146596921100000060500000000000000BLIL.4004503567URA1-0000000000LORRAINE LORATO00000000000000000000000000000000000000000000000000000000000000000
1028226757110044676000000054028556762611939854100000020000000000000000BLIL.4006930122MFDS-0000000000GASEWAME SELEME00000000000000000000000000000000000000000000000000000000000000000
1028226757110044676000000054128126762467747104100000039200000000000000BLIL.4007058142BMFW-0000000000GOSEGO SEEMA   00000000000000000000000000000000000000000000000000000000000000000
1028226757110044676000000054228286762301416477100000039000000000000000BLIL.4007166349BMFW-0000000000ONKAGETSE FISH 00000000000000000000000000000000000000000000000000000000000000000
1028226757110044676000000054328286760711179049100000010500000000000000BLIL.4000763575ULM5-0000000000WAITSE BOAMMAAR00000000000000000000000000000000000000000000000000000000000000000
1028226757110044676000000054428456762420726773100000023500000000000000BLIL.4005145236BMFW-0000000000TUDUETSO ITUMEL00000000000000000000000000000000000000000000000000000000000000000
1028226757110044676000000054528236762366199092100000022550000000000000BLIL.4005275114ULP1-0000000000CLINTON MOKOWE 00000000000000000000000000000000000000000000000000000000000000000
1028226757110044676000000054628146762087995406100000023323000000000000BLIL.0000273053BMFW-0000000000GAONE MUZILA   00000000000000000000000000000000000000000000000000000000000000000
1028226757110044676000000054728556762235959270100000020500000000000000BLIL.4006845440MFDS-0000000000GOROGWAMANG BAI00000000000000000000000000000000000000000000000000000000000000000
1028226757110044676000000054828526762302511565100000040720000000000000BLIL.4001371615BMFW-0000000000NOMSA MMAMBAIWA00000000000000000000000000000000000000000000000000000000000000000
1028226757110044676000000054928556762113273362100000030153000000000000BLIL.0000461264BMFW-0000000000LETTA L SHABANI00000000000000000000000000000000000000000000000000000000000000000
1028226757110044676000000055028236762332186908100000022500000000000000BLIL.4006965943MFDS-0000000000ITEKENG GABOITE00000000000000000000000000000000000000000000000000000000000000000
